{
  "contractName": "LibOrderDataV3",
  "abi": [
    {
      "inputs": [],
      "name": "V3_BUY",
      "outputs": [
        {
          "internalType": "bytes4",
          "name": "",
          "type": "bytes4"
        }
      ],
      "stateMutability": "view",
      "type": "function"
    },
    {
      "inputs": [],
      "name": "V3_SELL",
      "outputs": [
        {
          "internalType": "bytes4",
          "name": "",
          "type": "bytes4"
        }
      ],
      "stateMutability": "view",
      "type": "function"
    }
  ],
  "bytecode": "0x60f5610025600b82828239805160001a60731461001857fe5b30600052607381538281f3fe7300000000000000000000000000000000000000003014608060405260043610603d5760003560e01c806366c5bb27146042578063fcbf579d14605c575b600080fd5b60486062565b6040516053919060aa565b60405180910390f35b60486086565b7f2fa3cfd36fc2a11048e46a7dac1916c392731880ba073f2b7f10566b2fd6133e81565b7f1b18cdf6be079a715471a3705c2d89e1d730066ce14915cb307cc3e4a90c92d481565b6001600160e01b03199190911681526020019056fea2646970667358221220b45406022b6b381d206d50f32a09b6081b03beb2ec95ea69e61476977e81a2a464736f6c63430007060033",
  "immutableReferences": {},
  "source": "// SPDX-License-Identifier: MIT\n\npragma solidity 0.7.6;\npragma abicoder v2;\n\nimport \"@rarible/lib-part/contracts/LibPart.sol\";\n\nlibrary LibOrderDataV3 {\n    bytes4 constant public V3_SELL = bytes4(keccak256(\"V3_SELL\"));\n    bytes4 constant public V3_BUY = bytes4(keccak256(\"V3_BUY\"));\n\n    struct DataV3_SELL {\n        uint payouts;\n        uint originFeeFirst;\n        uint originFeeSecond;\n        uint maxFeesBasePoint;\n        bytes32 marketplaceMarker;\n    }\n\n    struct DataV3_BUY {\n        uint payouts;\n        uint originFeeFirst;\n        uint originFeeSecond;\n        bytes32 marketplaceMarker;\n    }\n\n    function decodeOrderDataV3_SELL(bytes memory data) internal pure returns (DataV3_SELL memory orderData) {\n        orderData = abi.decode(data, (DataV3_SELL));\n    }\n\n    function decodeOrderDataV3_BUY(bytes memory data) internal pure returns (DataV3_BUY memory orderData) {\n        orderData = abi.decode(data, (DataV3_BUY));\n    }\n\n}\n",
  "sourcePath": "/Users/quintin/Desktop/protocol-contracts/exchange-v2/contracts/libraries/LibOrderDataV3.sol",
  "compiler": {
    "name": "solc",
    "version": "0.7.6+commit.7338295f.Emscripten.clang"
  },
  "schemaVersion": "3.4.1",
  "updatedAt": "2022-08-04T11:17:32.426Z",
  "devdoc": {
    "kind": "dev",
    "methods": {},
    "version": 1
  },
  "userdoc": {
    "kind": "user",
    "methods": {},
    "version": 1
  }
}