{
  "contractName": "AuctionHouse1155",
  "abi": [
    {
      "anonymous": false,
      "inputs": [
        {
          "indexed": true,
          "internalType": "uint256",
          "name": "auctionId",
          "type": "uint256"
        },
        {
          "indexed": false,
          "internalType": "address",
          "name": "buyer",
          "type": "address"
        }
      ],
      "name": "AuctionBuyOut",
      "type": "event"
    },
    {
      "anonymous": false,
      "inputs": [
        {
          "indexed": true,
          "internalType": "uint256",
          "name": "auctionId",
          "type": "uint256"
        }
      ],
      "name": "AuctionCancelled",
      "type": "event"
    },
    {
      "anonymous": false,
      "inputs": [
        {
          "indexed": true,
          "internalType": "uint256",
          "name": "auctionId",
          "type": "uint256"
        },
        {
          "indexed": false,
          "internalType": "address",
          "name": "seller",
          "type": "address"
        }
      ],
      "name": "AuctionCreated",
      "type": "event"
    },
    {
      "anonymous": false,
      "inputs": [
        {
          "indexed": true,
          "internalType": "uint256",
          "name": "auctionId",
          "type": "uint256"
        }
      ],
      "name": "AuctionFinished",
      "type": "event"
    },
    {
      "anonymous": false,
      "inputs": [
        {
          "indexed": true,
          "internalType": "address",
          "name": "owner",
          "type": "address"
        },
        {
          "indexed": false,
          "internalType": "uint256",
          "name": "added",
          "type": "uint256"
        },
        {
          "indexed": false,
          "internalType": "uint256",
          "name": "total",
          "type": "uint256"
        }
      ],
      "name": "AvailableToWithdraw",
      "type": "event"
    },
    {
      "anonymous": false,
      "inputs": [
        {
          "indexed": true,
          "internalType": "uint256",
          "name": "auctionId",
          "type": "uint256"
        },
        {
          "indexed": false,
          "internalType": "address",
          "name": "buyer",
          "type": "address"
        },
        {
          "indexed": false,
          "internalType": "uint256",
          "name": "endTime",
          "type": "uint256"
        }
      ],
      "name": "BidPlaced",
      "type": "event"
    },
    {
      "anonymous": false,
      "inputs": [
        {
          "indexed": false,
          "internalType": "uint256",
          "name": "oldValue",
          "type": "uint256"
        },
        {
          "indexed": false,
          "internalType": "uint256",
          "name": "newValue",
          "type": "uint256"
        }
      ],
      "name": "MinimalDurationChanged",
      "type": "event"
    },
    {
      "anonymous": false,
      "inputs": [
        {
          "indexed": false,
          "internalType": "uint256",
          "name": "oldValue",
          "type": "uint256"
        },
        {
          "indexed": false,
          "internalType": "uint256",
          "name": "newValue",
          "type": "uint256"
        }
      ],
      "name": "MinimalStepChanged",
      "type": "event"
    },
    {
      "anonymous": false,
      "inputs": [
        {
          "indexed": true,
          "internalType": "address",
          "name": "previousOwner",
          "type": "address"
        },
        {
          "indexed": true,
          "internalType": "address",
          "name": "newOwner",
          "type": "address"
        }
      ],
      "name": "OwnershipTransferred",
      "type": "event"
    },
    {
      "anonymous": false,
      "inputs": [
        {
          "indexed": false,
          "internalType": "uint256",
          "name": "oldValue",
          "type": "uint256"
        },
        {
          "indexed": false,
          "internalType": "uint256",
          "name": "newValue",
          "type": "uint256"
        }
      ],
      "name": "ProtocolFeeChanged",
      "type": "event"
    },
    {
      "anonymous": false,
      "inputs": [
        {
          "indexed": true,
          "internalType": "bytes4",
          "name": "assetType",
          "type": "bytes4"
        },
        {
          "indexed": false,
          "internalType": "address",
          "name": "proxy",
          "type": "address"
        }
      ],
      "name": "ProxyChange",
      "type": "event"
    },
    {
      "inputs": [],
      "name": "auctionId",
      "outputs": [
        {
          "internalType": "uint256",
          "name": "",
          "type": "uint256"
        }
      ],
      "stateMutability": "view",
      "type": "function"
    },
    {
      "inputs": [
        {
          "internalType": "uint96",
          "name": "newValue",
          "type": "uint96"
        }
      ],
      "name": "changeMinimalDuration",
      "outputs": [],
      "stateMutability": "nonpayable",
      "type": "function"
    },
    {
      "inputs": [
        {
          "internalType": "uint96",
          "name": "newValue",
          "type": "uint96"
        }
      ],
      "name": "changeMinimalStep",
      "outputs": [],
      "stateMutability": "nonpayable",
      "type": "function"
    },
    {
      "inputs": [],
      "name": "defaultFeeReceiver",
      "outputs": [
        {
          "internalType": "address",
          "name": "",
          "type": "address"
        }
      ],
      "stateMutability": "view",
      "type": "function"
    },
    {
      "inputs": [
        {
          "internalType": "address",
          "name": "",
          "type": "address"
        }
      ],
      "name": "feeReceivers",
      "outputs": [
        {
          "internalType": "address",
          "name": "",
          "type": "address"
        }
      ],
      "stateMutability": "view",
      "type": "function"
    },
    {
      "inputs": [],
      "name": "minimalDuration",
      "outputs": [
        {
          "internalType": "uint96",
          "name": "",
          "type": "uint96"
        }
      ],
      "stateMutability": "view",
      "type": "function"
    },
    {
      "inputs": [],
      "name": "minimalStepBasePoint",
      "outputs": [
        {
          "internalType": "uint96",
          "name": "",
          "type": "uint96"
        }
      ],
      "stateMutability": "view",
      "type": "function"
    },
    {
      "inputs": [
        {
          "internalType": "address",
          "name": "",
          "type": "address"
        },
        {
          "internalType": "address",
          "name": "",
          "type": "address"
        },
        {
          "internalType": "uint256[]",
          "name": "",
          "type": "uint256[]"
        },
        {
          "internalType": "uint256[]",
          "name": "",
          "type": "uint256[]"
        },
        {
          "internalType": "bytes",
          "name": "",
          "type": "bytes"
        }
      ],
      "name": "onERC1155BatchReceived",
      "outputs": [
        {
          "internalType": "bytes4",
          "name": "",
          "type": "bytes4"
        }
      ],
      "stateMutability": "nonpayable",
      "type": "function"
    },
    {
      "inputs": [
        {
          "internalType": "address",
          "name": "",
          "type": "address"
        },
        {
          "internalType": "address",
          "name": "",
          "type": "address"
        },
        {
          "internalType": "uint256",
          "name": "",
          "type": "uint256"
        },
        {
          "internalType": "uint256",
          "name": "",
          "type": "uint256"
        },
        {
          "internalType": "bytes",
          "name": "",
          "type": "bytes"
        }
      ],
      "name": "onERC1155Received",
      "outputs": [
        {
          "internalType": "bytes4",
          "name": "",
          "type": "bytes4"
        }
      ],
      "stateMutability": "nonpayable",
      "type": "function"
    },
    {
      "inputs": [],
      "name": "owner",
      "outputs": [
        {
          "internalType": "address",
          "name": "",
          "type": "address"
        }
      ],
      "stateMutability": "view",
      "type": "function"
    },
    {
      "inputs": [],
      "name": "protocolFee",
      "outputs": [
        {
          "internalType": "uint256",
          "name": "",
          "type": "uint256"
        }
      ],
      "stateMutability": "view",
      "type": "function"
    },
    {
      "inputs": [],
      "name": "renounceOwnership",
      "outputs": [],
      "stateMutability": "nonpayable",
      "type": "function"
    },
    {
      "inputs": [],
      "name": "royaltiesRegistry",
      "outputs": [
        {
          "internalType": "contract IRoyaltiesProvider",
          "name": "",
          "type": "address"
        }
      ],
      "stateMutability": "view",
      "type": "function"
    },
    {
      "inputs": [
        {
          "internalType": "address payable",
          "name": "newDefaultFeeReceiver",
          "type": "address"
        }
      ],
      "name": "setDefaultFeeReceiver",
      "outputs": [],
      "stateMutability": "nonpayable",
      "type": "function"
    },
    {
      "inputs": [
        {
          "internalType": "address",
          "name": "token",
          "type": "address"
        },
        {
          "internalType": "address",
          "name": "wallet",
          "type": "address"
        }
      ],
      "name": "setFeeReceiver",
      "outputs": [],
      "stateMutability": "nonpayable",
      "type": "function"
    },
    {
      "inputs": [
        {
          "internalType": "uint64",
          "name": "_protocolFee",
          "type": "uint64"
        }
      ],
      "name": "setProtocolFee",
      "outputs": [],
      "stateMutability": "nonpayable",
      "type": "function"
    },
    {
      "inputs": [
        {
          "internalType": "contract IRoyaltiesProvider",
          "name": "newRoyaltiesRegistry",
          "type": "address"
        }
      ],
      "name": "setRoyaltiesRegistry",
      "outputs": [],
      "stateMutability": "nonpayable",
      "type": "function"
    },
    {
      "inputs": [
        {
          "internalType": "bytes4",
          "name": "assetType",
          "type": "bytes4"
        },
        {
          "internalType": "address",
          "name": "proxy",
          "type": "address"
        }
      ],
      "name": "setTransferProxy",
      "outputs": [],
      "stateMutability": "nonpayable",
      "type": "function"
    },
    {
      "inputs": [
        {
          "internalType": "address",
          "name": "newOwner",
          "type": "address"
        }
      ],
      "name": "transferOwnership",
      "outputs": [],
      "stateMutability": "nonpayable",
      "type": "function"
    },
    {
      "inputs": [
        {
          "internalType": "address",
          "name": "_to",
          "type": "address"
        }
      ],
      "name": "withdrawFaultyBid",
      "outputs": [],
      "stateMutability": "nonpayable",
      "type": "function"
    },
    {
      "inputs": [
        {
          "internalType": "address",
          "name": "newDefaultFeeReceiver",
          "type": "address"
        },
        {
          "internalType": "contract IRoyaltiesProvider",
          "name": "newRoyaltiesProvider",
          "type": "address"
        },
        {
          "internalType": "address",
          "name": "_transferProxy",
          "type": "address"
        },
        {
          "internalType": "address",
          "name": "_erc20TransferProxy",
          "type": "address"
        },
        {
          "internalType": "uint64",
          "name": "newProtocolFee",
          "type": "uint64"
        },
        {
          "internalType": "uint96",
          "name": "_minimalStepBasePoint",
          "type": "uint96"
        }
      ],
      "name": "__AuctionHouse1155_init",
      "outputs": [],
      "stateMutability": "nonpayable",
      "type": "function"
    },
    {
      "inputs": [
        {
          "internalType": "address",
          "name": "_sellToken",
          "type": "address"
        },
        {
          "internalType": "uint96",
          "name": "_sellTokenValue",
          "type": "uint96"
        },
        {
          "internalType": "uint256",
          "name": "_sellTokenId",
          "type": "uint256"
        },
        {
          "internalType": "address",
          "name": "_buyAsset",
          "type": "address"
        },
        {
          "internalType": "uint96",
          "name": "minimalPrice",
          "type": "uint96"
        },
        {
          "internalType": "bytes4",
          "name": "dataType",
          "type": "bytes4"
        },
        {
          "internalType": "bytes",
          "name": "data",
          "type": "bytes"
        }
      ],
      "name": "startAuction",
      "outputs": [],
      "stateMutability": "nonpayable",
      "type": "function"
    },
    {
      "inputs": [
        {
          "internalType": "uint256",
          "name": "_auctionId",
          "type": "uint256"
        },
        {
          "components": [
            {
              "internalType": "uint256",
              "name": "amount",
              "type": "uint256"
            },
            {
              "internalType": "bytes4",
              "name": "dataType",
              "type": "bytes4"
            },
            {
              "internalType": "bytes",
              "name": "data",
              "type": "bytes"
            }
          ],
          "internalType": "struct AuctionHouseBase.Bid",
          "name": "bid",
          "type": "tuple"
        }
      ],
      "name": "putBid",
      "outputs": [],
      "stateMutability": "payable",
      "type": "function"
    },
    {
      "inputs": [
        {
          "internalType": "uint256",
          "name": "_auctionId",
          "type": "uint256"
        }
      ],
      "name": "getMinimalNextBid",
      "outputs": [
        {
          "internalType": "uint256",
          "name": "minBid",
          "type": "uint256"
        }
      ],
      "stateMutability": "view",
      "type": "function"
    },
    {
      "inputs": [
        {
          "internalType": "uint256",
          "name": "_auctionId",
          "type": "uint256"
        }
      ],
      "name": "checkAuctionExistence",
      "outputs": [
        {
          "internalType": "bool",
          "name": "",
          "type": "bool"
        }
      ],
      "stateMutability": "view",
      "type": "function"
    },
    {
      "inputs": [
        {
          "internalType": "uint256",
          "name": "_auctionId",
          "type": "uint256"
        }
      ],
      "name": "finishAuction",
      "outputs": [],
      "stateMutability": "nonpayable",
      "type": "function"
    },
    {
      "inputs": [
        {
          "internalType": "uint256",
          "name": "_auctionId",
          "type": "uint256"
        }
      ],
      "name": "checkAuctionRangeTime",
      "outputs": [
        {
          "internalType": "bool",
          "name": "",
          "type": "bool"
        }
      ],
      "stateMutability": "view",
      "type": "function"
    },
    {
      "inputs": [
        {
          "internalType": "uint256",
          "name": "_auctionId",
          "type": "uint256"
        }
      ],
      "name": "cancel",
      "outputs": [],
      "stateMutability": "nonpayable",
      "type": "function"
    },
    {
      "inputs": [
        {
          "internalType": "uint256",
          "name": "_auctionId",
          "type": "uint256"
        },
        {
          "components": [
            {
              "internalType": "uint256",
              "name": "amount",
              "type": "uint256"
            },
            {
              "internalType": "bytes4",
              "name": "dataType",
              "type": "bytes4"
            },
            {
              "internalType": "bytes",
              "name": "data",
              "type": "bytes"
            }
          ],
          "internalType": "struct AuctionHouseBase.Bid",
          "name": "bid",
          "type": "tuple"
        }
      ],
      "name": "buyOut",
      "outputs": [],
      "stateMutability": "payable",
      "type": "function"
    },
    {
      "inputs": [
        {
          "internalType": "uint256",
          "name": "_auctionId",
          "type": "uint256"
        }
      ],
      "name": "getCurrentBuyer",
      "outputs": [
        {
          "internalType": "address",
          "name": "",
          "type": "address"
        }
      ],
      "stateMutability": "view",
      "type": "function"
    },
    {
      "inputs": [
        {
          "internalType": "bytes4",
          "name": "interfaceId",
          "type": "bytes4"
        }
      ],
      "name": "supportsInterface",
      "outputs": [
        {
          "internalType": "bool",
          "name": "",
          "type": "bool"
        }
      ],
      "stateMutability": "view",
      "type": "function"
    }
  ],
  "bytecode": "0x608060405234801561001057600080fd5b5061593b80620000216000396000f3fe6080604052600436106101d85760003560e01c80636eeb69db11610102578063bc197c8111610095578063e68aceae11610064578063e68aceae14610517578063ec57834814610537578063f23a6e6114610557578063f2fde38b14610577576101d8565b8063bc197c811461048a578063bd9d21bd146104b7578063cf266ed0146104d7578063e66db25e146104f7576101d8565b8063914bf5f9116100d1578063914bf5f91461042d578063a2a106b814610442578063a6f4a3e014610462578063b0e21e8a14610475576101d8565b80636eeb69db146103c3578063715018a6146103e357806374d0d4f9146103f85780638da5cb5b14610418576101d8565b8063363188151161017a57806343bc42d31161014957806343bc42d31461035b578063506a90e71461037b5780635f4a436e1461038e5780636d8f0694146103ae576101d8565b806336318815146102e65780633abf6fd4146103065780633be899221461031b57806340e58ee51461033b576101d8565b806310782f8f116101b657806310782f8f1461026d5780631cdfe3d8146102825780632f572336146102a457806330c642f1146102c6576101d8565b806301ffc9a7146101dd57806302097ab1146102135780630d60796414610240575b600080fd5b3480156101e957600080fd5b506101fd6101f8366004614fb8565b610597565b60405161020a9190615236565b60405180910390f35b34801561021f57600080fd5b5061023361022e366004614aac565b610615565b60405161020a919061518b565b34801561024c57600080fd5b5061026061025b36600461509b565b610631565b60405161020a919061571d565b34801561027957600080fd5b50610260610883565b34801561028e57600080fd5b506102a261029d366004614aac565b61088a565b005b3480156102b057600080fd5b506102b961090f565b60405161020a919061574b565b3480156102d257600080fd5b506102a26102e1366004614fd2565b61091f565b3480156102f257600080fd5b506102a261030136600461516c565b6109f0565b34801561031257600080fd5b50610233610ac2565b34801561032757600080fd5b506102a2610336366004614aac565b610ad2565b34801561034757600080fd5b506102a261035636600461509b565b610b57565b34801561036757600080fd5b506102a2610376366004615152565b610edb565b6102a26103893660046150b3565b610f88565b34801561039a57600080fd5b506102a26103a936600461516c565b61159d565b3480156103ba57600080fd5b50610233611680565b3480156103cf57600080fd5b506102336103de36600461509b565b611690565b3480156103ef57600080fd5b506102a26116af565b34801561040457600080fd5b506102a2610413366004614e48565b61175b565b34801561042457600080fd5b50610233611852565b34801561043957600080fd5b506102b9611861565b34801561044e57600080fd5b506101fd61045d36600461509b565b611878565b6102a26104703660046150b3565b61189d565b34801561048157600080fd5b50610260611c25565b34801561049657600080fd5b506104aa6104a5366004614d39565b611c2c565b60405161020a9190615241565b3480156104c357600080fd5b506102a26104d2366004614aac565b611c3d565b3480156104e357600080fd5b506102a26104f236600461509b565b611cad565b34801561050357600080fd5b506102a2610512366004614d01565b61213e565b34801561052357600080fd5b506102a2610532366004614ec7565b6121cf565b34801561054357600080fd5b506101fd61055236600461509b565b6125e3565b34801561056357600080fd5b506104aa610572366004614de2565b6126d1565b34801561058357600080fd5b506102a2610592366004614aac565b6126e2565b6040516301ffc9a760e01b815260009030906301ffc9a7906105bd908590600401615241565b60206040518083038186803b1580156105d557600080fd5b505afa1580156105e9573d6000803e3d6000fd5b505050506040513d601f19601f8201168201806040525081019061060d9190614f98565b90505b919050565b610130602052600090815260409020546001600160a01b031681565b60008181526101c66020908152604080832081516101808101835281546001600160a01b038082168352600160a01b918290046001600160601b039081168488015260018086015485880152600280870154938416606080880191909152949093049091166080850152855192830186526003850180548452600486015460e01b6001600160e01b0319168489015260058601805488516101009482161594909402600019011693909304601f810189900489028301890188528083528998959760a0890196929490860193929091908301828280156107525780601f1061072757610100808354040283529160200191610752565b820191906000526020600020905b81548152906001019060200180831161073557829003601f168201915b50505091909252505050815260068201546001600160a01b03808216602080850191909152600160a01b928390046001600160601b0316604080860191909152600786015492831660608601529282046001600160401b03166080850152600160e01b90910460e01b6001600160e01b03191660a0840152600884018054835160026101006001841615026000190190921691909104601f810184900484028201840190945283815260c0909401939290918301828280156108555780601f1061082a57610100808354040283529160200191610855565b820191906000526020600020905b81548152906001019060200180831161083857829003601f168201915b505050505081525050905061087c8161010001518260e001518360a00151600001516127e5565b9392505050565b6101925481565b610892612837565b6001600160a01b03166108a3611852565b6001600160a01b0316146108ec576040805162461bcd60e51b815260206004820181905260248201526000805160206158e6833981519152604482015290519081900360640190fd5b61012f80546001600160a01b0319166001600160a01b0392909216919091179055565b610193546001600160601b031681565b610927612837565b6001600160a01b0316610938611852565b6001600160a01b031614610981576040805162461bcd60e51b815260206004820181905260248201526000805160206158e6833981519152604482015290519081900360640190fd5b6001600160e01b03198216600081815261015f60205260409081902080546001600160a01b0319166001600160a01b038516179055517f4b5aced933c0c9a88aeac3f0b3b72c5aaf75df8ebaf53225773248c4c3153593906109e490849061518b565b60405180910390a25050565b6109f8612837565b6001600160a01b0316610a09611852565b6001600160a01b031614610a52576040805162461bcd60e51b815260206004820181905260248201526000805160206158e6833981519152604482015290519081900360640190fd5b610193546040517fa13d21133118bfdffd1e4dc724faaadc5860dcb38ac5836e06f183ac5306b27991610a92916001600160601b0390911690849061575f565b60405180910390a161019380546bffffffffffffffffffffffff19166001600160601b0392909216919091179055565b61012f546001600160a01b031681565b610ada612837565b6001600160a01b0316610aeb611852565b6001600160a01b031614610b34576040805162461bcd60e51b815260206004820181905260248201526000805160206158e6833981519152604482015290519081900360640190fd5b61012e80546001600160a01b0319166001600160a01b0392909216919091179055565b600260fb541415610b9d576040805162461bcd60e51b815260206004820152601f6024820152600080516020615831833981519152604482015290519081900360640190fd5b600260fb81905560008281526101c66020908152604080832081516101808101835281546001600160a01b038082168352600160a01b918290046001600160601b039081168488015260018086015485880152858a015492831660608087019190915293909204166080840152845191820185526003840180548352600485015460e01b6001600160e01b0319168388015260058501805487516101009482161594909402600019011699909904601f8101889004880283018801875280835297989397949660a089019693959194938601939190830182828015610cc35780601f10610c9857610100808354040283529160200191610cc3565b820191906000526020600020905b815481529060010190602001808311610ca657829003601f168201915b50505091909252505050815260068201546001600160a01b03808216602080850191909152600160a01b928390046001600160601b0316604080860191909152600786015492831660608601529282046001600160401b03166080850152600160e01b90910460e01b6001600160e01b03191660a0840152600884018054835160026101006001841615026000190190921691909104601f810184900484028201840190945283815260c090940193929091830182828015610dc65780601f10610d9b57610100808354040283529160200191610dc6565b820191906000526020600020905b815481529060010190602001808311610da957829003601f168201915b5050505050815250509050610dde8160c0015161283b565b610e035760405162461bcd60e51b8152600401610dfa90615355565b60405180910390fd5b60c0810151610e10612837565b6001600160a01b0316816001600160a01b031614610e405760405162461bcd60e51b8152600401610dfa9061541f565b6101008201516001600160a01b031615610e6c5760405162461bcd60e51b8152600401610dfa90615500565b610e9d8260000151836040015184602001516001600160601b03166000805160206158c68339815191523086612849565b610ea68361288d565b60405183907f2809c7e17bf978fbc7194c0a694b638c4215e9140cacc6c38ca36010b45697df90600090a25050600160fb5550565b610ee3612837565b6001600160a01b0316610ef4611852565b6001600160a01b031614610f3d576040805162461bcd60e51b815260206004820181905260248201526000805160206158e6833981519152604482015290519081900360640190fd5b7fb51bef650ff5ad43303dbe2e500a74d4fd1bdc9ae05f046bece330e82ae0ba8761012d5482604051610f71929190615734565b60405180910390a16001600160401b031661012d55565b600260fb541415610fce576040805162461bcd60e51b815260206004820152601f6024820152600080516020615831833981519152604482015290519081900360640190fd5b600260fb556000610fdd612837565b825160008581526101c66020908152604080832081516101808101835281546001600160a01b038082168352600160a01b918290046001600160601b039081168488015260018086015485880152600280870154938416606080880191909152949093049091166080850152855192830186526003850180548452600486015460e01b6001600160e01b0319168489015260058601805488516101009482161594909402600019011693909304601f810189900489028301890188528083529a9b50989997989397949660a0890196939593860193919291908301828280156111075780601f106110dc57610100808354040283529160200191611107565b820191906000526020600020905b8154815290600101906020018083116110ea57829003601f168201915b50505091909252505050815260068201546001600160a01b03808216602080850191909152600160a01b928390046001600160601b0316604080860191909152600786015492831660608601529282046001600160401b03166080850152600160e01b90910460e01b6001600160e01b03191660a0840152600884018054835160026101006001841615026000190190921691909104601f810184900484028201840190945283815260c09094019392909183018282801561120a5780601f106111df5761010080835404028352916020019161120a565b820191906000526020600020905b8154815290600101906020018083116111ed57829003601f168201915b5050505050815250509050600081608001519050600061123483610160015184610140015161291f565b9050600061124a87604001518860200151612981565b6000015190506103e88461012001516001600160401b031661126b836129d5565b8451611276906129d5565b010111156112965760405162461bcd60e51b8152600401610dfa90615331565b60608401516001600160a01b03166112b45786516112b490876129db565b6112dd8460c0015185608001516001600160601b031684604001516001600160601b0316612a29565b6112e78286612a5f565b15611305576112fa8488848b858b612aa0565b505050505050611594565b61010084015142906001600160a01b0316611397576020830151611333906001600160601b03831690612c70565b60008a81526101c66020526040902060020180546001600160601b03808416600160a01b026001600160a01b039092169190911790915560e0870151919550168610156113925760405162461bcd60e51b8152600401610dfa90615456565b611410565b866001600160a01b03168561010001516001600160a01b031614156113ce5760405162461bcd60e51b8152600401610dfa90615537565b60006113ec8661010001518760e001518860a00151600001516127e5565b90508087101561140e5760405162461bcd60e51b8152600401610dfa9061538a565b505b600061141f8660600151612cd6565b905061144086606001518761010001518a8960a00151858e60000151612d2a565b60008a81526101c660209081526040918290208b51600382019081558c83015160048301805463ffffffff191660e09290921c919091179055928c015180518d9493611491936005019201906146ee565b50505060008a81526101c66020526040812060070180546001600160a01b0319166001600160a01b038b16179055610193546001600160601b03169061038482106114de576103846114e0565b815b90506001600160601b03808216906114fa90891686612d43565b6001600160601b0316101561154f5761151c6001600160601b03851682612c70565b60008d81526101c66020526040902060020180546001600160a01b0316600160a01b6001600160601b0384160217905596505b8b7f0e54eff26401bf69b81b26f60bd85ef47f5d85275c1d268d84f68d6897431c478b8960405161158192919061519f565b60405180910390a2505050505050505050505b5050600160fb55565b6115a5612837565b6001600160a01b03166115b6611852565b6001600160a01b0316146115ff576040805162461bcd60e51b815260206004820181905260248201526000805160206158e6833981519152604482015290519081900360640190fd5b7f30bd79db520376a437e44c44c2b3ec63f6730f4df0a95f56ea39765f1420cab7610193600c9054906101000a90046001600160601b03168260405161164692919061575f565b60405180910390a161019380546001600160601b03909216600160601b026bffffffffffffffffffffffff60601b19909216919091179055565b61012e546001600160a01b031681565b60009081526101c660205260409020600701546001600160a01b031690565b6116b7612837565b6001600160a01b03166116c8611852565b6001600160a01b031614611711576040805162461bcd60e51b815260206004820181905260248201526000805160206158e6833981519152604482015290519081900360640190fd5b60c9546040516000916001600160a01b0316907f8be0079c531659141344cd1fd0a4f28419497f9722a3daafe3b4186f6b6457e0908390a360c980546001600160a01b0319169055565b600054610100900460ff16806117745750611774612db2565b80611782575060005460ff16155b6117bd5760405162461bcd60e51b815260040180806020018281038252602e815260200180615877602e913960400191505060405180910390fd5b600054610100900460ff161580156117e8576000805460ff1961ff0019909116610100171660011790555b6117f0612dc3565b6117f8612e65565b611800612f5e565b611808612ffb565b611811826130a1565b61181b8585613189565b61182f836001600160401b03168888613234565b611837612dc3565b8015611849576000805461ff00191690555b50505050505050565b60c9546001600160a01b031690565b61019354600160601b90046001600160601b031681565b60008181526101c6602052604081206006015461060d906001600160a01b031661283b565b600260fb5414156118e3576040805162461bcd60e51b815260206004820152601f6024820152600080516020615831833981519152604482015290519081900360640190fd5b600260fb81905560008381526101c66020908152604080832081516101808101835281546001600160a01b038082168352600160a01b918290046001600160601b039081168488015260018086015485880152858a015492831660608087019190915293909204166080840152845191820185526003840180548352600485015460e01b6001600160e01b0319168388015260058501805487516101009482161594909402600019011699909904601f8101889004880283018801875280835297989397949660a089019693959194938601939190830182828015611a095780601f106119de57610100808354040283529160200191611a09565b820191906000526020600020905b8154815290600101906020018083116119ec57829003601f168201915b50505091909252505050815260068201546001600160a01b03808216602080850191909152600160a01b928390046001600160601b0316604080860191909152600786015492831660608601529282046001600160401b03166080850152600160e01b90910460e01b6001600160e01b03191660a0840152600884018054835160026101006001841615026000190190921691909104601f810184900484028201840190945283815260c090940193929091830182828015611b0c5780601f10611ae157610100808354040283529160200191611b0c565b820191906000526020600020905b815481529060010190602001808311611aef57829003601f168201915b50505050508152505090506000611b2d82610160015183610140015161291f565b9050611b588260c0015183608001516001600160601b031683604001516001600160601b0316612a29565b6000611b6c84604001518560200151612981565b518451909150611b7d908390612a5f565b611b995760405162461bcd60e51b8152600401610dfa906154d1565b6103e88361012001516001600160401b0316611bb4836129d5565b8451611bbf906129d5565b01011115611bdf5760405162461bcd60e51b8152600401610dfa90615331565b6000611be9612837565b60608501519091506001600160a01b0316611c0a578451611c0a90826129db565b611c18848685898686612aa0565b5050600160fb5550505050565b61012d5481565b63bc197c8160e01b95945050505050565b6000611c47612837565b6001600160a01b0381166000908152610191602052604090205490915080611c815760405162461bcd60e51b8152600401610dfa906155c8565b6001600160a01b0380831660009081526101916020526040812055611ca890841682613310565b505050565b600260fb541415611cf3576040805162461bcd60e51b815260206004820152601f6024820152600080516020615831833981519152604482015290519081900360640190fd5b600260fb81905560008281526101c66020908152604080832081516101808101835281546001600160a01b038082168352600160a01b918290046001600160601b039081168488015260018086015485880152858a015492831660608087019190915293909204166080840152845191820185526003840180548352600485015460e01b6001600160e01b0319168388015260058501805487516101009482161594909402600019011699909904601f8101889004880283018801875280835297989397949660a089019693959194938601939190830182828015611e195780601f10611dee57610100808354040283529160200191611e19565b820191906000526020600020905b815481529060010190602001808311611dfc57829003601f168201915b50505091909252505050815260068201546001600160a01b03808216602080850191909152600160a01b928390046001600160601b0316604080860191909152600786015492831660608601529282046001600160401b03166080850152600160e01b90910460e01b6001600160e01b03191660a0840152600884018054835160026101006001841615026000190190921691909104601f810184900484028201840190945283815260c090940193929091830182828015611f1c5780601f10611ef157610100808354040283529160200191611f1c565b820191906000526020600020905b815481529060010190602001808311611eff57829003601f168201915b5050505050815250509050611f348160c0015161283b565b611f505760405162461bcd60e51b8152600401610dfa90615355565b6000611f6682610160015183610140015161291f565b9050611f8c82608001516001600160601b031682604001516001600160601b03166133a8565b158015611fa657506101008201516001600160a01b031615155b611fc25760405162461bcd60e51b8152600401610dfa90615625565b6000611fde8360a00151604001518460a0015160200151612981565b6000015190506121286040518060a001604052806120218660000151876040015188602001516001600160601b03166000805160206158c68339815191526133f1565b81526020016120338660c0015161343f565b815260200161204585600001516134da565b815263025ceed960e61b60005261015f60209081527f6bb7d5147a8fb54909a95658247450b7e2bd8cbe89124ff5c9c4c921b1f0f121546001600160a01b03169082015230604091820152805160a080820190925260608701519187015151909182916120b2919061354e565b81526020016120c587610100015161343f565b81526020016120d3856134da565b81526020016120e58760600151612cd6565b6001600160a01b0316815230602091820152604080516060810182526101208901516001600160401b031681526103e892810192909252810160025b90526135b5565b50506121338461288d565b5050600160fb555050565b612146612837565b6001600160a01b0316612157611852565b6001600160a01b0316146121a0576040805162461bcd60e51b815260206004820181905260248201526000805160206158e6833981519152604482015290519081900360640190fd5b6001600160a01b0391821660009081526101306020526040902080546001600160a01b03191691909216179055565b61012d5460006121df838561291f565b6101935460208201519192506001600160601b0390811691161080159061222957506305265c006fffffffffffffffffffffffffffffffff1681602001516001600160601b031611155b6122455760405162461bcd60e51b8152600401610dfa906153f3565b6000886001600160601b03161161226e5760405162461bcd60e51b8152600401610dfa906152c3565b6103e88261227f83600001516129d5565b01111561229e5760405162461bcd60e51b8152600401610dfa90615331565b60006122a86136c4565b905060006122b4612837565b905060006040518061018001604052808d6001600160a01b031681526020018c6001600160601b031681526020018b81526020018a6001600160a01b0316815260200160006001600160601b0316815260200160405180606001604052806000815260200160006001600160e01b0319168152602001604051806020016040528060008152508152508152602001836001600160a01b03168152602001896001600160601b0316815260200160006001600160a01b03168152602001866001600160401b03168152602001886001600160e01b0319168152602001878152509050806101c6600085815260200190815260200160002060008201518160000160006101000a8154816001600160a01b0302191690836001600160a01b0316021790555060208201518160000160146101000a8154816001600160601b0302191690836001600160601b031602179055506040820151816001015560608201518160020160006101000a8154816001600160a01b0302191690836001600160a01b0316021790555060808201518160020160146101000a8154816001600160601b0302191690836001600160601b0316021790555060a0820151816003016000820151816000015560208201518160010160006101000a81548163ffffffff021916908360e01c021790555060408201518160020190805190602001906124bb9291906146ee565b50505060c082015160068201805460e0808601516001600160601b0316600160a01b9081026001600160a01b039586166001600160a01b0319948516178616179093556101008601516007860180546101208901516101408a015190941c600160e01b026001600160e01b036001600160401b0390951690960267ffffffffffffffff60a01b199390971694169390931716939093179290921617905561016082015180516125749160088401916020909101906146ee565b5090505061259d8c8b8d6001600160601b03166000805160206158c68339815191528630612849565b827f5d551e2a2cc977fd8c530317059b4f2d9f504fb82f7dfad736f8d56679bcdfd0836040516125cd919061518b565b60405180910390a2505050505050505050505050565b60008181526101c6602090815260408083206002808201546008909201805484516101006001831615026000190190911692909204601f810186900486028301860190945283825261060d94600160a01b9093046001600160601b0316936126bf938301828280156126965780601f1061266b57610100808354040283529160200191612696565b820191906000526020600020905b81548152906001019060200180831161267957829003601f168201915b50505060008881526101c66020526040902060070154600160e01b900460e01b915061291f9050565b604001516001600160601b03166133a8565b63f23a6e6160e01b95945050505050565b6126ea612837565b6001600160a01b03166126fb611852565b6001600160a01b031614612744576040805162461bcd60e51b815260206004820181905260248201526000805160206158e6833981519152604482015290519081900360640190fd5b6001600160a01b0381166127895760405162461bcd60e51b81526004018080602001828103825260268152602001806158516026913960400191505060405180910390fd5b60c9546040516001600160a01b038084169216907f8be0079c531659141344cd1fd0a4f28419497f9722a3daafe3b4186f6b6457e090600090a360c980546001600160a01b0319166001600160a01b0392909216919091179055565b60006001600160a01b03841661280557506001600160601b03821661087c565b6101935461282f90612828908490600160601b90046001600160601b03166136d3565b83906136eb565b949350505050565b3390565b6001600160a01b0316151590565b612885612858878787876133f1565b6001600160e01b03198516600090815261015f6020526040902054849084906001600160a01b0316613745565b505050505050565b60405181907f53ab6823c4ae8c865033f94ee16313a21c6ade19520d884dc804d622a43bc67490600090a260008181526101c66020526040812081815560018101829055600281018290556003810182815560048201805463ffffffff19169055909190816128ff600585018261477a565b505060006006830181905560078301819055611ca890600884019061477a565b6129276147be565b6001600160e01b03198216632611a13360e11b14156129635782511561295e578280602001905181019061295b9190614fed565b90505b61297b565b60405162461bcd60e51b8152600401610dfa906155f5565b92915050565b6129896147e5565b6001600160e01b03198216632611a13360e11b14156129bd5782511561295e578280602001905181019061295b9190615061565b60405162461bcd60e51b8152600401610dfa90615670565b60a01c90565b34828110156129fc5760405162461bcd60e51b8152600401610dfa9061547d565b6000612a088285613b3c565b90508015612a2357612a236001600160a01b03841682613310565b50505050565b612a328361283b565b8015612a435750612a4382826133a8565b611ca85760405162461bcd60e51b8152600401610dfa90615564565b60008083606001516001600160601b0316118015612a8a57508183606001516001600160601b031611155b15612a975750600161297b565b50600092915050565b6000612aaf8760600151612cd6565b9050612aca8760a00151886060015189610100015184613b93565b60608701516000906001600160a01b0316612ae6575030612ae9565b50815b612c206040518060a00160405280612b268b600001518c604001518d602001516001600160601b03166000805160206158c68339815191526133f1565b8152602001612b388b60c0015161343f565b8152602001612b4a89600001516134da565b815263025ceed960e61b60005261015f60209081527f6bb7d5147a8fb54909a95658247450b7e2bd8cbe89124ff5c9c4c921b1f0f121546001600160a01b03169082015230604091820152805160a0810190915260608b01518a518291612bb09161354e565b8152602001612bbe8761343f565b8152602001612bcc886134da565b8152602001856001600160a01b03168152602001846001600160a01b031681525060405180606001604052808c61012001516001600160401b031681526020016103e8815260200160028081111561212157fe5b5050612c2b8561288d565b610192547f10373d853b64ae416c332eacb659de0f9bfc4fa3601556194abce1991061efbe84604051612c5e919061518b565b60405180910390a25050505050505050565b60008282016001600160601b03808516908216101561087c576040805162461bcd60e51b815260206004820152601b60248201527f536166654d6174683a206164646974696f6e206f766572666c6f770000000000604482015290519081900360640190fd5b6000806001600160a01b0383161561060d5750506322ba176160e21b6000525061015f6020527f37a0f11a7c52ed6343a78a36fd0006c8cc3b240985add397f3caa41a44193d04546001600160a01b031690565b612d3683878785613b93565b6128858187863086613cb3565b6000826001600160601b0316826001600160601b03161115612dac576040805162461bcd60e51b815260206004820152601e60248201527f536166654d6174683a207375627472616374696f6e206f766572666c6f770000604482015290519081900360640190fd5b50900390565b6000612dbd30613ccf565b15905090565b600054610100900460ff1680612ddc5750612ddc612db2565b80612dea575060005460ff16155b612e255760405162461bcd60e51b815260040180806020018281038252602e815260200180615877602e913960400191505060405180910390fd5b600054610100900460ff16158015612e50576000805460ff1961ff0019909116610100171660011790555b8015612e62576000805461ff00191690555b50565b600054610100900460ff1680612e7e5750612e7e612db2565b80612e8c575060005460ff16155b612ec75760405162461bcd60e51b815260040180806020018281038252602e815260200180615877602e913960400191505060405180910390fd5b600054610100900460ff16158015612ef2576000805460ff1961ff0019909116610100171660011790555b6000612efc612837565b60c980546001600160a01b0319166001600160a01b038316908117909155604051919250906000907f8be0079c531659141344cd1fd0a4f28419497f9722a3daafe3b4186f6b6457e0908290a3508015612e62576000805461ff001916905550565b600054610100900460ff1680612f775750612f77612db2565b80612f85575060005460ff16155b612fc05760405162461bcd60e51b815260040180806020018281038252602e815260200180615877602e913960400191505060405180910390fd5b600054610100900460ff16158015612feb576000805460ff1961ff0019909116610100171660011790555b612e50630271189760e51b613cd5565b600054610100900460ff16806130145750613014612db2565b80613022575060005460ff16155b61305d5760405162461bcd60e51b815260040180806020018281038252602e815260200180615877602e913960400191505060405180910390fd5b600054610100900460ff16158015613088576000805460ff1961ff0019909116610100171660011790555b600160fb558015612e62576000805461ff001916905550565b600054610100900460ff16806130ba57506130ba612db2565b806130c8575060005460ff16155b6131035760405162461bcd60e51b815260040180806020018281038252602e815260200180615877602e913960400191505060405180910390fd5b600054610100900460ff1615801561312e576000805460ff1961ff0019909116610100171660011790555b60016101925561019380546103846bffffffffffffffffffffffff19909116176bffffffffffffffffffffffff60601b1916600160601b6001600160601b038516021790558015613185576000805461ff00191690555b5050565b61015f6020527f37a0f11a7c52ed6343a78a36fd0006c8cc3b240985add397f3caa41a44193d0480546001600160a01b039283166001600160a01b0319918216179091557f395075a018bfc52b97ac5ac6c81b5009d7cd5700f7d583893d57c0efe87b5d95805493909216928116831790915563025ceed960e61b6000527f6bb7d5147a8fb54909a95658247450b7e2bd8cbe89124ff5c9c4c921b1f0f12180549091169091179055565b600054610100900460ff168061324d575061324d612db2565b8061325b575060005460ff16155b6132965760405162461bcd60e51b815260040180806020018281038252602e815260200180615877602e913960400191505060405180910390fd5b600054610100900460ff161580156132c1576000805460ff1961ff0019909116610100171660011790555b61012d84905561012f80546001600160a01b038086166001600160a01b03199283161790925561012e8054928516929091169190911790558015612a23576000805461ff001916905550505050565b6040516000906001600160a01b0384169083908381818185875af1925050503d806000811461335b576040519150601f19603f3d011682016040523d82523d6000602084013e613360565b606091505b5050905080611ca8576040805162461bcd60e51b815260206004820152600f60248201526e1d1c985b9cd9995c8819985a5b1959608a1b604482015290519081900360640190fd5b60004282158015906133b957508083115b156133c857600091505061297b565b6000841180156133d85750808411155b156133e757600091505061297b565b5060019392505050565b6133f96147f8565b602080820184905281516001600160e01b03198416905260405161342191879187910161521d565b60408051601f19818403018152919052815160200152949350505050565b60408051600180825281830190925260609160009190816020015b613462614818565b81526020019060019003908161345a579050509050828160008151811061348557fe5b6020026020010151600001906001600160a01b031690816001600160a01b031681525050612710816000815181106134b957fe5b6020908102919091018101516001600160601b039092169101529050919050565b60408051600180825281830190925260609160009190816020015b6134fd614818565b8152602001906001900390816134f5579050509050828160008151811061352057fe5b60209081029190910101516001600160a01b039091169052613541836129d5565b816000815181106134b957fe5b6135566147f8565b602081018290526001600160a01b03831661357c5780516355575f5d60e11b905261297b565b80516322ba176160e21b905260405161359990849060200161518b565b60408051601f1981840301815291905281516020015292915050565b82516020908101518351909101516001836040015160028111156135d557fe5b141561361f576135ef858585600001518660200151613d5c565b915061361a846000015160000151856000015160200151866080015188602001518860600151613fd8565b6136bc565b60028360400151600281111561363157fe5b14156136765761364b848685600001518660200151613d5c565b905061361a856000015160000151866000015160200151876080015187602001518960600151613fd8565b845180516020918201516080880151928701516060890151613699949190613fd8565b8351805160209182015160808701519288015160608801516136bc949190613fd8565b935093915050565b61019280546001810190915590565b600061087c6127106136e58585614152565b906141ab565b60008282018381101561087c576040805162461bcd60e51b815260206004820152601b60248201527f536166654d6174683a206164646974696f6e206f766572666c6f770000000000604482015290519081900360640190fd5b8351516001600160e01b0319166339d690a360e11b141561388b5760008085600001516020015180602001905181019061377f9190614cd4565b9150915085602001516001146137a75760405162461bcd60e51b8152600401610dfa906154a5565b6001600160a01b03851630141561381f57604051632142170760e11b81526001600160a01b038316906342842e0e906137e8903090889086906004016151c1565b600060405180830381600087803b15801561380257600080fd5b505af1158015613816573d6000803e3d6000fd5b50505050613884565b604051637b84dc8360e11b81526001600160a01b0384169063f709b90690613851908590899089908790600401615299565b600060405180830381600087803b15801561386b57600080fd5b505af115801561387f573d6000803e3d6000fd5b505050505b5050612a23565b8351516001600160e01b0319166322ba176160e21b14156139ce5760008460000151602001518060200190518101906138c49190614ac8565b90506001600160a01b03841630141561396057602085015160405163a9059cbb60e01b81526001600160a01b0383169163a9059cbb9161390891879160040161521d565b602060405180830381600087803b15801561392257600080fd5b505af1158015613936573d6000803e3d6000fd5b505050506040513d601f19601f8201168201806040525081019061395a9190614f98565b506139c8565b602085015160405163776062c360e01b81526001600160a01b0384169163776062c39161399591859189918991600401615299565b600060405180830381600087803b1580156139af57600080fd5b505af11580156139c3573d6000803e3d6000fd5b505050505b50612a23565b8351516001600160e01b03191663025ceed960e61b1415613a8b57600080856000015160200151806020019051810190613a089190614cd4565b90925090506001600160a01b038516301415613a53576020860151604051637921219560e11b81526001600160a01b0384169163f242432a916137e8913091899187916004016151e5565b6020860151604051639c1c2ee960e01b81526001600160a01b03851691639c1c2ee9916138519186918a918a91889190600401615256565b8351516001600160e01b0319166355575f5d60e11b1415613ad4576001600160a01b0382163014613acf576020840151613acf906001600160a01b03841690613310565b612a23565b6040516354bc0cf160e01b81526001600160a01b038216906354bc0cf190613b049087908790879060040161569c565b600060405180830381600087803b158015613b1e57600080fd5b505af1158015613b32573d6000803e3d6000fd5b5050505050505050565b600082821115612dac576040805162461bcd60e51b815260206004820152601e60248201527f536166654d6174683a207375627472616374696f6e206f766572666c6f770000604482015290519081900360640190fd5b6001600160a01b038216613ba657612a23565b6001600160a01b038316613ca8576000826001600160a01b03168560000151604051613bd190615188565b60006040518083038185875af1925050503d8060008114613c0e576040519150601f19603f3d011682016040523d82523d6000602084013e613c13565b606091505b50509050806139c8576001600160a01b038316600090815261019160205260408120548651909190613c4590836136eb565b6001600160a01b03861660008181526101916020526040908190208390558951905192935090917e13bff06d622c14d54757ee0547a817dc3e491fb8da534f108a531b016dee3c91613c98918590615726565b60405180910390a2505050612a23565b8351612a2390843085855b613cc8613cc0858761354e565b848484613745565b5050505050565b3b151590565b6001600160e01b03198082161415613d34576040805162461bcd60e51b815260206004820152601c60248201527f4552433136353a20696e76616c696420696e7465726661636520696400000000604482015290519081900360640190fd5b6001600160e01b0319166000908152600160208190526040909120805460ff19169091179055565b6000613d7685600001516020015184876040015185614212565b90506000613da0828760000151602001518860800151878a60000151600001518b6060015161426b565b865180518751516020808a015193015160808b015160608c0151959650613dce959394929387929190614331565b90508560400151516001148015613dea57508460400151516001145b8015613e3f57508560400151600081518110613e0257fe5b6020026020010151600001516001600160a01b03168560400151600081518110613e2857fe5b6020026020010151600001516001600160a01b0316145b15613f5557604080516001808252818301909252600091816020015b613e63614818565b815260200190600190039081613e5b5790505090508560400151600081518110613e8957fe5b60200260200101516000015181600081518110613ea257fe5b60209081029190910101516001600160a01b03909116905260408701518051600090613eca57fe5b6020026020010151602001518660400151600081518110613ee757fe5b6020026020010151602001510181600081518110613f0157fe5b6020026020010151602001906001600160601b031690816001600160601b031681525050613f4b87600001516000015183896000015160200151848b608001518c60600151614436565b509150613fae9050565b613f7f8660000151600001518288600001516020015189604001518a608001518b60600151614436565b5086518051602090910151604088015160808a015160608b0151949550613faa948693929190614436565b5090505b613fcf86600001516000015182886080015188602001518a60600151613fd8565b50949350505050565b6000825111613ff95760405162461bcd60e51b8152600401610dfa906153af565b600084815b60018551038110156140c857600061403f86838151811061401b57fe5b6020026020010151602001516001600160601b0316896136d390919063ffffffff16565b905061407486838151811061405057fe5b6020026020010151602001516001600160601b0316856136eb90919063ffffffff16565b935080156140bf576140868382613b3c565b92506140bf60405180604001604052808b815260200183815250888885815181106140ad57fe5b60200260200101516000015188613745565b50600101613ffe565b506000846001865103815181106140db57fe5b6020026020010151905061410581602001516001600160601b0316846136eb90919063ffffffff16565b925082612710146141285760405162461bcd60e51b8152600401610dfa90615591565b8115613b3257613b3260405180604001604052808a81526020018481525087836000015187613745565b6000826141615750600061297b565b8282028284828161416e57fe5b041461087c5760405162461bcd60e51b81526004018080602001828103825260218152602001806158a56021913960400191505060405180910390fd5b6000808211614201576040805162461bcd60e51b815260206004820152601a60248201527f536166654d6174683a206469766973696f6e206279207a65726f000000000000604482015290519081900360640190fd5b81838161420a57fe5b049392505050565b6000811561422157508361282f565b600061423761423087876136d3565b87906136eb565b905060005b84518110156142615761425761282886838151811061401b57fe5b915060010161423c565b5095945050505050565b600080600061427b8989886144eb565b909250905080156143255784516000906001600160e01b0319166322ba176160e21b14156142c25785602001518060200190518101906142bb9190614ac8565b90506142fb565b85516001600160e01b03191663025ceed960e61b14156142fb57600086602001518060200190518101906142f69190614cd4565b509150505b6143236040518060400160405280888152602001848152508961431d8461450d565b88613745565b505b50979650505050505050565b60008061433d8861454c565b905080516001148015614351575086516001145b801561439e57508660008151811061436557fe5b6020026020010151600001516001600160a01b03168160008151811061438757fe5b6020026020010151600001516001600160a01b0316145b156143ef57611388816000815181106143b357fe5b6020026020010151602001516001600160601b031611156143e65760405162461bcd60e51b8152600401610dfa906152fa565b8591505061442b565b6000806144008b8989868a8a614436565b915091506113888111156144265760405162461bcd60e51b8152600401610dfa906152fa565b509150505b979650505050505050565b846000805b85518110156144df5761447786828151811061445357fe5b6020026020010151602001516001600160601b0316836136eb90919063ffffffff16565b915060006144a6848989858151811061448c57fe5b6020026020010151602001516001600160601b03166144eb565b909450905080156144d6576144d660405180604001604052808c815260200183815250878985815181106140ad57fe5b5060010161443b565b50965096945050505050565b600080614501856144fc86866136d3565b6146c1565b91509150935093915050565b6001600160a01b03808216600090815261013060205260408120549091168015614538579050610610565b505061012f546001600160a01b0316919050565b80516060906001600160e01b03191663025ceed960e61b1480614580575081516001600160e01b0319166339d690a360e11b145b156146365760008083602001518060200190518101906145a09190614cd4565b61012e54604051634e53ee3d60e11b81529294509092506001600160a01b031690639ca7dc7a906145d7908590859060040161521d565b600060405180830381600087803b1580156145f157600080fd5b505af1158015614605573d6000803e3d6000fd5b505050506040513d6000823e601f3d908101601f1916820160405261462d9190810190614f66565b92505050610610565b81516001600160e01b03191662737ea960e61b141561467757600082602001518060200190518101906146699190614ae4565b608001519250610610915050565b81516001600160e01b03191663d8f960c160e01b14156146b957600082602001518060200190518101906146ab9190614be1565b606001519250610610915050565b506060919050565b600080828411156146e0576146d68484613b3c565b91508290506146e7565b5060009050825b9250929050565b828054600181600116156101000203166002900490600052602060002090601f016020900481019282614724576000855561476a565b82601f1061473d57805160ff191683800117855561476a565b8280016001018555821561476a579182015b8281111561476a57825182559160200191906001019061474f565b5061477692915061482f565b5090565b50805460018160011615610100020316600290046000825580601f106147a05750612e62565b601f016020900490600052602060002090810190612e62919061482f565b60408051608081018252600080825260208201819052918101829052606081019190915290565b6040518060200160405280600081525090565b604051806040016040528061480b614844565b8152602001600081525090565b604080518082019091526000808252602082015290565b5b808211156147765760008155600101614830565b60408051808201909152600081526060602082015290565b600061486f61486a846157b9565b615779565b905082815283838301111561488357600080fd5b61087c8360208301846157da565b600082601f8301126148a1578081fd5b815160206148b161486a8361579c565b82815281810190858301855b858110156148fb578151880189603f8201126148d7578788fd5b6148e88a878301516040840161485c565b85525092840192908401906001016148bd565b5090979650505050505050565b600082601f830112614918578081fd5b8151602061492861486a8361579c565b82815281810190858301604080860288018501891015614946578687fd5b865b868110156149aa5781838b03121561495e578788fd5b81518281018181106001600160401b038211171561497857fe5b8352835161498581615806565b8152838701516149948161581b565b8188015285529385019391810191600101614948565b509198975050505050505050565b600082601f8301126149c8578081fd5b813560206149d861486a8361579c565b82815281810190858301838502870184018810156149f4578586fd5b855b858110156148fb578135845292840192908401906001016149f6565b80356001600160e01b03198116811461061057600080fd5b600082601f830112614a3a578081fd5b8135614a4861486a826157b9565b818152846020838601011115614a5c578283fd5b816020850160208301379081016020019190915292915050565b600082601f830112614a86578081fd5b61087c8383516020850161485c565b80356001600160401b038116811461061057600080fd5b600060208284031215614abd578081fd5b813561087c81615806565b600060208284031215614ad9578081fd5b815161087c81615806565b60008060408385031215614af6578081fd5b8251614b0181615806565b60208401519092506001600160401b0380821115614b1d578283fd5b9084019060c08287031215614b30578283fd5b614b3a60c0615779565b82518152602083015182811115614b4f578485fd5b614b5b88828601614a76565b60208301525060408301516040820152606083015182811115614b7c578485fd5b614b8888828601614908565b606083015250608083015182811115614b9f578485fd5b614bab88828601614908565b60808301525060a083015182811115614bc2578485fd5b614bce88828601614891565b60a0830152508093505050509250929050565b60008060408385031215614bf3578182fd5b8251614bfe81615806565b60208401519092506001600160401b0380821115614c1a578283fd5b9084019060a08287031215614c2d578283fd5b614c3760a0615779565b82518152602083015182811115614c4c578485fd5b614c5888828601614a76565b602083015250604083015182811115614c6f578485fd5b614c7b88828601614908565b604083015250606083015182811115614c92578485fd5b614c9e88828601614908565b606083015250608083015182811115614cb5578485fd5b614cc188828601614891565b6080830152508093505050509250929050565b60008060408385031215614ce6578182fd5b8251614cf181615806565b6020939093015192949293505050565b60008060408385031215614d13578182fd5b8235614d1e81615806565b91506020830135614d2e81615806565b809150509250929050565b600080600080600060a08688031215614d50578081fd5b8535614d5b81615806565b94506020860135614d6b81615806565b935060408601356001600160401b0380821115614d86578283fd5b614d9289838a016149b8565b94506060880135915080821115614da7578283fd5b614db389838a016149b8565b93506080880135915080821115614dc8578283fd5b50614dd588828901614a2a565b9150509295509295909350565b600080600080600060a08688031215614df9578283fd5b8535614e0481615806565b94506020860135614e1481615806565b9350604086013592506060860135915060808601356001600160401b03811115614e3c578182fd5b614dd588828901614a2a565b60008060008060008060c08789031215614e60578384fd5b8635614e6b81615806565b95506020870135614e7b81615806565b94506040870135614e8b81615806565b93506060870135614e9b81615806565b9250614ea960808801614a95565b915060a0870135614eb98161581b565b809150509295509295509295565b600080600080600080600060e0888a031215614ee1578485fd5b8735614eec81615806565b96506020880135614efc8161581b565b9550604088013594506060880135614f1381615806565b93506080880135614f238161581b565b9250614f3160a08901614a12565b915060c08801356001600160401b03811115614f4b578182fd5b614f578a828b01614a2a565b91505092959891949750929550565b600060208284031215614f77578081fd5b81516001600160401b03811115614f8c578182fd5b61282f84828501614908565b600060208284031215614fa9578081fd5b8151801515811461087c578182fd5b600060208284031215614fc9578081fd5b61087c82614a12565b60008060408385031215614fe4578182fd5b614d1e83614a12565b600060808284031215614ffe578081fd5b604051608081018181106001600160401b038211171561501a57fe5b60405282518152602083015161502f8161581b565b602082015260408301516150428161581b565b604082015260608301516150558161581b565b60608201529392505050565b600060208284031215615072578081fd5b604051602081018181106001600160401b038211171561508e57fe5b6040529151825250919050565b6000602082840312156150ac578081fd5b5035919050565b600080604083850312156150c5578182fd5b8235915060208301356001600160401b03808211156150e2578283fd5b90840190606082870312156150f5578283fd5b60405160608101818110838211171561510a57fe5b6040528235815261511d60208401614a12565b6020820152604083013582811115615133578485fd5b61513f88828601614a2a565b6040830152508093505050509250929050565b600060208284031215615163578081fd5b61087c82614a95565b60006020828403121561517d578081fd5b813561087c8161581b565b90565b6001600160a01b0391909116815260200190565b6001600160a01b039290921682526001600160601b0316602082015260400190565b6001600160a01b039384168152919092166020820152604081019190915260600190565b6001600160a01b0394851681529290931660208301526040820152606081019190915260a06080820181905260009082015260c00190565b6001600160a01b03929092168252602082015260400190565b901515815260200190565b6001600160e01b031991909116815260200190565b6001600160a01b03958616815293851660208501529190931660408301526060820192909252608081019190915260c060a0820181905260009082015260e00190565b6001600160a01b039485168152928416602084015292166040820152606081019190915260800190565b60208082526019908201527f696e636f7272656374205f73656c6c546f6b656e56616c756500000000000000604082015260600190565b6020808252601d908201527f526f79616c746965732061726520746f6f206869676820283e35302529000000604082015260600190565b6020808252600a908201526977726f6e67206665657360b01b604082015260600190565b6020808252818101527f7468657265206973206e6f2061756374696f6e20776974682074686973206964604082015260600190565b6020808252600b908201526a62696420746f6f206c6f7760a81b604082015260600190565b60208082526024908201527f7472616e736665725061796f7574733a206e6f7468696e6720746f207472616e60408201526339b332b960e11b606082015260800190565b60208082526012908201527134b731b7b93932b1ba10323ab930ba34b7b760711b604082015260600190565b6020808252601a908201527f61756374696f6e206f776e6572206e6f74206465746563746564000000000000604082015260600190565b6020808252600d908201526c189a59081d1bdbc81cdb585b1b609a1b604082015260600190565b6020808252600e908201526d0dcdee840cadcdeeaced0408aa8960931b604082015260600190565b60208082526012908201527132b9319b9918903b30b63ab29032b93937b960711b604082015260600190565b6020808252601590820152741b9bdd08195b9bdd59da08199bdc88189d5e5bdd5d605a1b604082015260600190565b6020808252601d908201527f63616e27742063616e63656c2061756374696f6e207769746820626964000000604082015260600190565b602080825260139082015272185b1c9958591e481dda5b9b9a5b99c8189a59606a1b604082015260600190565b60208082526013908201527261756374696f6e20697320696e61637469766560681b604082015260600190565b6020808252601e908201527f53756d207061796f75747320427073206e6f7420657175616c20313030250000604082015260600190565b6020808252601390820152726e6f7468696e6720746f20776974686472617760681b604082015260600190565b60208082526016908201527577726f6e672061756374696f6e20646174615479706560501b604082015260600190565b6020808252602b908201527f6f6e6c7920656e6465642061756374696f6e2077697468206269642063616e2060408201526a189948199a5b9a5cda195960aa1b606082015260800190565b60208082526012908201527177726f6e672062696420646174615479706560701b604082015260600190565b60006060825284516040606084015263ffffffff60e01b81511660a084015260208101519050604060c084015280518060e08501526101006156e482828701602086016157da565b60209788015160808601526001600160a01b039687169785019790975293909416604083015250601f909101601f191601909101919050565b90815260200190565b918252602082015260400190565b9182526001600160401b0316602082015260400190565b6001600160601b0391909116815260200190565b6001600160601b0392831681529116602082015260400190565b6040518181016001600160401b038111828210171561579457fe5b604052919050565b60006001600160401b038211156157af57fe5b5060209081020190565b60006001600160401b038211156157cc57fe5b50601f01601f191660200190565b60005b838110156157f55781810151838201526020016157dd565b83811115612a235750506000910152565b6001600160a01b0381168114612e6257600080fd5b6001600160601b0381168114612e6257600080fdfe5265656e7472616e637947756172643a207265656e7472616e742063616c6c004f776e61626c653a206e6577206f776e657220697320746865207a65726f2061646472657373496e697469616c697a61626c653a20636f6e747261637420697320616c726561647920696e697469616c697a6564536166654d6174683a206d756c7469706c69636174696f6e206f766572666c6f77973bb64086f173ec8099b7ed3d43da984f4a332e4417a08bc6a286e6402b05864f776e61626c653a2063616c6c6572206973206e6f7420746865206f776e6572a264697066735822122061771c94fc706b2539c3cec74da1d2fa9a3db65c64e046f500be563e2fdbc57064736f6c63430007060033",
  "immutableReferences": {},
  "source": "// SPDX-License-Identifier: MIT\n\npragma solidity 0.7.6;\npragma abicoder v2;\n\nimport \"./AuctionHouseBase1155.sol\";\n\nimport \"@openzeppelin/contracts-upgradeable/token/ERC1155/ERC1155HolderUpgradeable.sol\";\n\n/// @dev contract to create and interact with auctions\ncontract AuctionHouse1155 is ERC1155HolderUpgradeable, AuctionHouseBase1155 {\n    using SafeMathUpgradeable96 for uint96;\n    using SafeMathUpgradeable for uint;\n\n    function __AuctionHouse1155_init(\n        address newDefaultFeeReceiver,\n        IRoyaltiesProvider newRoyaltiesProvider,\n        address _transferProxy,\n        address _erc20TransferProxy,\n        uint64 newProtocolFee,\n        uint96 _minimalStepBasePoint\n    ) external initializer {\n        __Context_init_unchained();\n        __Ownable_init_unchained();\n        __ERC1155Receiver_init_unchained();\n        __ReentrancyGuard_init_unchained();\n        __AuctionHouseBase_init_unchained(_minimalStepBasePoint);\n        __TransferExecutor_init_unchained(_transferProxy, _erc20TransferProxy);\n        __RaribleTransferManager_init_unchained(newProtocolFee, newDefaultFeeReceiver, newRoyaltiesProvider);        \n        __AuctionHouse1155_init_unchained();\n    }\n\n    function __AuctionHouse1155_init_unchained() internal initializer {  \n    }\n\n    /// @dev creates an auction and locks sell asset\n    function startAuction(\n        address _sellToken,\n        uint96 _sellTokenValue,\n        uint _sellTokenId,\n        address _buyAsset,\n        uint96 minimalPrice,\n        bytes4 dataType,\n        bytes memory data\n    ) external {\n        //todo: check if token contract supports ERC1155 interface?\n\n        uint _protocolFee = protocolFee;\n        LibAucDataV1.DataV1 memory aucData = LibAucDataV1.parse(data, dataType);\n        require(aucData.duration >= minimalDuration && aucData.duration <= MAX_DURATION, \"incorrect duration\");\n        require(_sellTokenValue > 0, \"incorrect _sellTokenValue\");\n        require(getValueFromData(aucData.originFee) + _protocolFee <= MAX_FEE_BASE_POINT, \"wrong fees\");\n\n        uint currentAuctionId = getNextAndIncrementAuctionId();\n        address payable sender = _msgSender();\n        Auction memory auc = Auction(\n            _sellToken,\n            _sellTokenValue,\n            _sellTokenId,\n            _buyAsset,\n            0,\n            Bid(0, \"\", \"\"),\n            sender,\n            minimalPrice,\n            payable(address(0)),\n            uint64(_protocolFee),\n            dataType,\n            data\n        );\n        auctions[currentAuctionId] = auc;\n\n        transferNFT(\n            _sellToken, \n            _sellTokenId, \n            _sellTokenValue, \n            LibAsset.ERC1155_ASSET_CLASS,\n            sender,\n            address(this)\n        );\n        \n        emit AuctionCreated(currentAuctionId, sender);\n    }\n\n    /// @dev put a bid and return locked assets for the last bid\n    function putBid(uint _auctionId, Bid memory bid) payable public nonReentrant {\n        address payable newBuyer = _msgSender();\n        uint newAmount = bid.amount;\n        Auction memory currentAuction = auctions[_auctionId];\n        uint96 endTime = currentAuction.endTime;\n        LibAucDataV1.DataV1 memory aucData = LibAucDataV1.parse(currentAuction.data, currentAuction.dataType);\n        uint bidOriginFee = LibBidDataV1.parse(bid.data, bid.dataType).originFee;\n        require(getValueFromData(aucData.originFee) + getValueFromData(bidOriginFee) + currentAuction.protocolFee <= MAX_FEE_BASE_POINT, \"wrong fees\");\n\n        if (currentAuction.buyAsset == address(0)) {\n            checkEthReturnChange(bid.amount, newBuyer);\n        }\n        checkAuctionInProgress(currentAuction.seller, currentAuction.endTime, aucData.startTime);\n        if (buyOutVerify(aucData, newAmount)) {\n            _buyOut(\n                currentAuction,\n                bid,\n                aucData,\n                _auctionId,\n                bidOriginFee,\n                newBuyer\n            );\n            return;\n        }\n        \n        uint96 currentTime = uint96(block.timestamp);\n        //start action if minimal price is met\n        if (currentAuction.buyer == address(0x0)) {//no bid at all\n            // set endTime if it's not set\n            endTime = currentTime.add(aucData.duration);\n            auctions[_auctionId].endTime = endTime;\n            require(newAmount >= currentAuction.minimalPrice, \"bid too small\");\n        } else {//there is bid in auction\n            require(currentAuction.buyer != newBuyer, \"already winning bid\");\n            uint256 minAmount = _getMinimalNextBid(currentAuction.buyer, currentAuction.minimalPrice, currentAuction.lastBid.amount);\n            require(newAmount >= minAmount, \"bid too low\");\n        }\n\n        address proxy = _getProxy(currentAuction.buyAsset);\n        reserveBid(\n            currentAuction.buyAsset,\n            currentAuction.buyer,\n            newBuyer,\n            currentAuction.lastBid,\n            proxy,\n            bid.amount\n        );\n        auctions[_auctionId].lastBid = bid;\n        auctions[_auctionId].buyer = newBuyer;\n\n        // auction is extended for EXTENSION_DURATION or minimalDuration if (minimalDuration < EXTENSION_DURATION)\n        uint96 minDur = minimalDuration;\n        uint96 extension = (minDur < EXTENSION_DURATION) ? minDur : EXTENSION_DURATION;\n\n        // extends auction time if it's about to end\n        if (endTime.sub(currentTime) < extension) {\n            endTime = currentTime.add(extension);\n            auctions[_auctionId].endTime = endTime;\n        }\n        emit BidPlaced(_auctionId, newBuyer, endTime);\n    }\n\n    /// @dev returns the minimal amount of the next bid (without fees)\n    function getMinimalNextBid(uint _auctionId) external view returns (uint minBid){\n        Auction memory currentAuction = auctions[_auctionId];\n        return _getMinimalNextBid(currentAuction.buyer, currentAuction.minimalPrice, currentAuction.lastBid.amount);\n    }\n\n    /// @dev returns true if auction exists, false otherwise\n    function checkAuctionExistence(uint _auctionId) external view returns (bool){\n        return _checkAuctionExistence(auctions[_auctionId].seller);\n    }\n\n    /// @dev finishes, deletes and transfers all assets for an auction if it's ended (it exists, it has at least one bid, now > endTme)\n    function finishAuction(uint _auctionId) external nonReentrant {\n        Auction memory currentAuction = auctions[_auctionId];\n        require(_checkAuctionExistence(currentAuction.seller), \"there is no auction with this id\");\n        LibAucDataV1.DataV1 memory aucData = LibAucDataV1.parse(currentAuction.data, currentAuction.dataType);\n        require(\n            !_checkAuctionRangeTime(currentAuction.endTime, aucData.startTime) &&\n            currentAuction.buyer != address(0),\n            \"only ended auction with bid can be finished\"\n        );\n        uint bidOriginFee = LibBidDataV1.parse(currentAuction.lastBid.data, currentAuction.lastBid.dataType).originFee;\n\n        doTransfers(\n            LibDeal.DealSide(\n                getSellAsset(\n                    currentAuction.sellToken, \n                    currentAuction.sellTokenId,\n                    currentAuction.sellTokenValue,\n                    LibAsset.ERC1155_ASSET_CLASS\n                ),\n                getPayouts(currentAuction.seller),\n                getOriginFee(aucData.originFee),\n                proxies[LibAsset.ERC1155_ASSET_CLASS],\n                address(this)\n            ), \n            LibDeal.DealSide(\n                getBuyAsset(\n                    currentAuction.buyAsset,\n                    currentAuction.lastBid.amount\n                ),\n                getPayouts(currentAuction.buyer),\n                getOriginFee(bidOriginFee),\n                _getProxy(currentAuction.buyAsset),\n                address(this)\n            ), \n            LibDeal.DealData(\n                currentAuction.protocolFee,\n                MAX_FEE_BASE_POINT,\n                LibFeeSide.FeeSide.RIGHT\n            )\n        );\n        deactivateAuction(_auctionId);\n    }\n\n    /// @dev returns true if auction started and hasn't finished yet, false otherwise\n    function checkAuctionRangeTime(uint _auctionId) external view returns (bool){\n        return _checkAuctionRangeTime(auctions[_auctionId].endTime, LibAucDataV1.parse(auctions[_auctionId].data, auctions[_auctionId].dataType).startTime);\n    }\n\n    /// @dev deletes auction after finalizing\n    function deactivateAuction(uint _auctionId) internal {\n        emit AuctionFinished(_auctionId);\n        delete auctions[_auctionId];\n    }\n\n    /// @dev cancels existing auction without bid\n    function cancel(uint _auctionId) external nonReentrant {\n        Auction memory currentAuction = auctions[_auctionId];\n        require(_checkAuctionExistence(currentAuction.seller), \"there is no auction with this id\");\n        address seller = currentAuction.seller;\n        require(seller == _msgSender(), \"auction owner not detected\");\n        require(currentAuction.buyer == address(0), \"can't cancel auction with bid\");\n        transferNFT(\n            currentAuction.sellToken, \n            currentAuction.sellTokenId, \n            currentAuction.sellTokenValue, \n            LibAsset.ERC1155_ASSET_CLASS,\n            address(this),\n            seller\n        );\n        deactivateAuction(_auctionId);\n        emit AuctionCancelled(_auctionId);\n    }\n\n    // todo will there be a problem if buyer is last bidder?\n    /// @dev buyout auction if bid satisfies buyout condition\n    function buyOut(uint _auctionId, Bid memory bid) external payable nonReentrant {\n        Auction memory currentAuction = auctions[_auctionId];\n        LibAucDataV1.DataV1 memory aucData = LibAucDataV1.parse(currentAuction.data, currentAuction.dataType);\n        checkAuctionInProgress(currentAuction.seller, currentAuction.endTime, aucData.startTime);\n        uint bidOriginFee = LibBidDataV1.parse(bid.data, bid.dataType).originFee;\n\n        require(buyOutVerify(aucData, bid.amount), \"not enough for buyout\");\n        require(getValueFromData(aucData.originFee) + getValueFromData(bidOriginFee) + currentAuction.protocolFee <= MAX_FEE_BASE_POINT, \"wrong fees\");\n\n        address sender = _msgSender();\n        if (currentAuction.buyAsset == address(0)) {\n            checkEthReturnChange(bid.amount, sender);\n        }\n        _buyOut(\n            currentAuction,\n            bid,\n            aucData,\n            _auctionId,\n            bidOriginFee,\n            sender\n        );\n    }\n\n    function _buyOut(\n        Auction memory currentAuction,\n        Bid memory bid,\n        LibAucDataV1.DataV1 memory aucData,\n        uint _auctionId,\n        uint newBidOriginFee,\n        address sender\n    ) internal {\n        address proxy = _getProxy(currentAuction.buyAsset);\n\n        _returnBid(\n            currentAuction.lastBid,\n            currentAuction.buyAsset,\n            currentAuction.buyer,\n            proxy\n        );\n\n        address from;\n        if (currentAuction.buyAsset == address(0)) {\n            // if buyAsset = ETH\n            from = address(this);\n        } else {\n            // if buyAsset = ERC20\n            from = sender;\n        }\n        doTransfers(\n            LibDeal.DealSide(\n                getSellAsset(\n                    currentAuction.sellToken, \n                    currentAuction.sellTokenId,\n                    currentAuction.sellTokenValue,\n                    LibAsset.ERC1155_ASSET_CLASS\n                ),\n                getPayouts(currentAuction.seller),\n                getOriginFee(aucData.originFee),\n                proxies[LibAsset.ERC1155_ASSET_CLASS],\n                address(this)\n            ), \n            LibDeal.DealSide(\n                getBuyAsset(\n                    currentAuction.buyAsset,\n                    bid.amount\n                ),\n                getPayouts(sender),\n                getOriginFee(newBidOriginFee),\n                proxy,\n                from\n            ), \n            LibDeal.DealData(\n                currentAuction.protocolFee,\n                MAX_FEE_BASE_POINT,\n                LibFeeSide.FeeSide.RIGHT\n            )\n        );\n        \n        deactivateAuction(_auctionId);\n        emit AuctionBuyOut(auctionId, sender);\n    }\n\n    /// @dev returns current highest bidder for an auction\n    function getCurrentBuyer(uint _auctionId) external view returns(address) {\n        return auctions[_auctionId].buyer;\n    }\n\n    function supportsInterface(bytes4 interfaceId) public view virtual override returns (bool) {\n        return this.supportsInterface(interfaceId);\n    }\n\n}",
  "sourcePath": "/Users/quintin/Desktop/protocol-contracts/auction/contracts/1155/AuctionHouse1155.sol",
  "compiler": {
    "name": "solc",
    "version": "0.7.6+commit.7338295f.Emscripten.clang"
  },
  "schemaVersion": "3.4.1",
  "updatedAt": "2022-08-04T07:15:50.517Z",
  "devdoc": {
    "details": "contract to create and interact with auctions",
    "kind": "dev",
    "methods": {
      "buyOut(uint256,(uint256,bytes4,bytes))": {
        "details": "buyout auction if bid satisfies buyout condition"
      },
      "cancel(uint256)": {
        "details": "cancels existing auction without bid"
      },
      "checkAuctionExistence(uint256)": {
        "details": "returns true if auction exists, false otherwise"
      },
      "checkAuctionRangeTime(uint256)": {
        "details": "returns true if auction started and hasn't finished yet, false otherwise"
      },
      "finishAuction(uint256)": {
        "details": "finishes, deletes and transfers all assets for an auction if it's ended (it exists, it has at least one bid, now > endTme)"
      },
      "getCurrentBuyer(uint256)": {
        "details": "returns current highest bidder for an auction"
      },
      "getMinimalNextBid(uint256)": {
        "details": "returns the minimal amount of the next bid (without fees)"
      },
      "owner()": {
        "details": "Returns the address of the current owner."
      },
      "putBid(uint256,(uint256,bytes4,bytes))": {
        "details": "put a bid and return locked assets for the last bid"
      },
      "renounceOwnership()": {
        "details": "Leaves the contract without owner. It will not be possible to call `onlyOwner` functions anymore. Can only be called by the current owner. NOTE: Renouncing ownership will leave the contract without an owner, thereby removing any functionality that is only available to the owner."
      },
      "startAuction(address,uint96,uint256,address,uint96,bytes4,bytes)": {
        "details": "creates an auction and locks sell asset"
      },
      "supportsInterface(bytes4)": {
        "details": "See {IERC165-supportsInterface}. Time complexity O(1), guaranteed to always use less than 30 000 gas."
      },
      "transferOwnership(address)": {
        "details": "Transfers ownership of the contract to a new account (`newOwner`). Can only be called by the current owner."
      },
      "withdrawFaultyBid(address)": {
        "details": "Used to withdraw faulty bids (bids that failed to return after out-bidding)"
      }
    },
    "version": 1
  },
  "userdoc": {
    "kind": "user",
    "methods": {},
    "version": 1
  }
}