{
  "contractName": "AuctionHouse721",
  "abi": [
    {
      "anonymous": false,
      "inputs": [
        {
          "indexed": true,
          "internalType": "uint256",
          "name": "auctionId",
          "type": "uint256"
        },
        {
          "indexed": false,
          "internalType": "address",
          "name": "buyer",
          "type": "address"
        }
      ],
      "name": "AuctionBuyOut",
      "type": "event"
    },
    {
      "anonymous": false,
      "inputs": [
        {
          "indexed": true,
          "internalType": "uint256",
          "name": "auctionId",
          "type": "uint256"
        }
      ],
      "name": "AuctionCancelled",
      "type": "event"
    },
    {
      "anonymous": false,
      "inputs": [
        {
          "indexed": true,
          "internalType": "uint256",
          "name": "auctionId",
          "type": "uint256"
        },
        {
          "indexed": false,
          "internalType": "address",
          "name": "seller",
          "type": "address"
        }
      ],
      "name": "AuctionCreated",
      "type": "event"
    },
    {
      "anonymous": false,
      "inputs": [
        {
          "indexed": true,
          "internalType": "uint256",
          "name": "auctionId",
          "type": "uint256"
        }
      ],
      "name": "AuctionFinished",
      "type": "event"
    },
    {
      "anonymous": false,
      "inputs": [
        {
          "indexed": true,
          "internalType": "address",
          "name": "owner",
          "type": "address"
        },
        {
          "indexed": false,
          "internalType": "uint256",
          "name": "added",
          "type": "uint256"
        },
        {
          "indexed": false,
          "internalType": "uint256",
          "name": "total",
          "type": "uint256"
        }
      ],
      "name": "AvailableToWithdraw",
      "type": "event"
    },
    {
      "anonymous": false,
      "inputs": [
        {
          "indexed": true,
          "internalType": "uint256",
          "name": "auctionId",
          "type": "uint256"
        },
        {
          "indexed": false,
          "internalType": "address",
          "name": "buyer",
          "type": "address"
        },
        {
          "indexed": false,
          "internalType": "uint256",
          "name": "endTime",
          "type": "uint256"
        }
      ],
      "name": "BidPlaced",
      "type": "event"
    },
    {
      "anonymous": false,
      "inputs": [
        {
          "indexed": false,
          "internalType": "uint256",
          "name": "oldValue",
          "type": "uint256"
        },
        {
          "indexed": false,
          "internalType": "uint256",
          "name": "newValue",
          "type": "uint256"
        }
      ],
      "name": "MinimalDurationChanged",
      "type": "event"
    },
    {
      "anonymous": false,
      "inputs": [
        {
          "indexed": false,
          "internalType": "uint256",
          "name": "oldValue",
          "type": "uint256"
        },
        {
          "indexed": false,
          "internalType": "uint256",
          "name": "newValue",
          "type": "uint256"
        }
      ],
      "name": "MinimalStepChanged",
      "type": "event"
    },
    {
      "anonymous": false,
      "inputs": [
        {
          "indexed": true,
          "internalType": "address",
          "name": "previousOwner",
          "type": "address"
        },
        {
          "indexed": true,
          "internalType": "address",
          "name": "newOwner",
          "type": "address"
        }
      ],
      "name": "OwnershipTransferred",
      "type": "event"
    },
    {
      "anonymous": false,
      "inputs": [
        {
          "indexed": false,
          "internalType": "uint256",
          "name": "oldValue",
          "type": "uint256"
        },
        {
          "indexed": false,
          "internalType": "uint256",
          "name": "newValue",
          "type": "uint256"
        }
      ],
      "name": "ProtocolFeeChanged",
      "type": "event"
    },
    {
      "anonymous": false,
      "inputs": [
        {
          "indexed": true,
          "internalType": "bytes4",
          "name": "assetType",
          "type": "bytes4"
        },
        {
          "indexed": false,
          "internalType": "address",
          "name": "proxy",
          "type": "address"
        }
      ],
      "name": "ProxyChange",
      "type": "event"
    },
    {
      "inputs": [],
      "name": "auctionId",
      "outputs": [
        {
          "internalType": "uint256",
          "name": "",
          "type": "uint256"
        }
      ],
      "stateMutability": "view",
      "type": "function"
    },
    {
      "inputs": [
        {
          "internalType": "uint96",
          "name": "newValue",
          "type": "uint96"
        }
      ],
      "name": "changeMinimalDuration",
      "outputs": [],
      "stateMutability": "nonpayable",
      "type": "function"
    },
    {
      "inputs": [
        {
          "internalType": "uint96",
          "name": "newValue",
          "type": "uint96"
        }
      ],
      "name": "changeMinimalStep",
      "outputs": [],
      "stateMutability": "nonpayable",
      "type": "function"
    },
    {
      "inputs": [],
      "name": "defaultFeeReceiver",
      "outputs": [
        {
          "internalType": "address",
          "name": "",
          "type": "address"
        }
      ],
      "stateMutability": "view",
      "type": "function"
    },
    {
      "inputs": [
        {
          "internalType": "address",
          "name": "",
          "type": "address"
        }
      ],
      "name": "feeReceivers",
      "outputs": [
        {
          "internalType": "address",
          "name": "",
          "type": "address"
        }
      ],
      "stateMutability": "view",
      "type": "function"
    },
    {
      "inputs": [
        {
          "internalType": "address",
          "name": "_collection",
          "type": "address"
        },
        {
          "internalType": "uint256",
          "name": "tokenId",
          "type": "uint256"
        }
      ],
      "name": "getAuctionByToken",
      "outputs": [
        {
          "internalType": "uint256",
          "name": "",
          "type": "uint256"
        }
      ],
      "stateMutability": "view",
      "type": "function"
    },
    {
      "inputs": [],
      "name": "minimalDuration",
      "outputs": [
        {
          "internalType": "uint96",
          "name": "",
          "type": "uint96"
        }
      ],
      "stateMutability": "view",
      "type": "function"
    },
    {
      "inputs": [],
      "name": "minimalStepBasePoint",
      "outputs": [
        {
          "internalType": "uint96",
          "name": "",
          "type": "uint96"
        }
      ],
      "stateMutability": "view",
      "type": "function"
    },
    {
      "inputs": [
        {
          "internalType": "address",
          "name": "",
          "type": "address"
        },
        {
          "internalType": "address",
          "name": "",
          "type": "address"
        },
        {
          "internalType": "uint256",
          "name": "",
          "type": "uint256"
        },
        {
          "internalType": "bytes",
          "name": "",
          "type": "bytes"
        }
      ],
      "name": "onERC721Received",
      "outputs": [
        {
          "internalType": "bytes4",
          "name": "",
          "type": "bytes4"
        }
      ],
      "stateMutability": "nonpayable",
      "type": "function"
    },
    {
      "inputs": [],
      "name": "owner",
      "outputs": [
        {
          "internalType": "address",
          "name": "",
          "type": "address"
        }
      ],
      "stateMutability": "view",
      "type": "function"
    },
    {
      "inputs": [],
      "name": "protocolFee",
      "outputs": [
        {
          "internalType": "uint256",
          "name": "",
          "type": "uint256"
        }
      ],
      "stateMutability": "view",
      "type": "function"
    },
    {
      "inputs": [],
      "name": "renounceOwnership",
      "outputs": [],
      "stateMutability": "nonpayable",
      "type": "function"
    },
    {
      "inputs": [],
      "name": "royaltiesRegistry",
      "outputs": [
        {
          "internalType": "contract IRoyaltiesProvider",
          "name": "",
          "type": "address"
        }
      ],
      "stateMutability": "view",
      "type": "function"
    },
    {
      "inputs": [
        {
          "internalType": "address payable",
          "name": "newDefaultFeeReceiver",
          "type": "address"
        }
      ],
      "name": "setDefaultFeeReceiver",
      "outputs": [],
      "stateMutability": "nonpayable",
      "type": "function"
    },
    {
      "inputs": [
        {
          "internalType": "address",
          "name": "token",
          "type": "address"
        },
        {
          "internalType": "address",
          "name": "wallet",
          "type": "address"
        }
      ],
      "name": "setFeeReceiver",
      "outputs": [],
      "stateMutability": "nonpayable",
      "type": "function"
    },
    {
      "inputs": [
        {
          "internalType": "uint64",
          "name": "_protocolFee",
          "type": "uint64"
        }
      ],
      "name": "setProtocolFee",
      "outputs": [],
      "stateMutability": "nonpayable",
      "type": "function"
    },
    {
      "inputs": [
        {
          "internalType": "contract IRoyaltiesProvider",
          "name": "newRoyaltiesRegistry",
          "type": "address"
        }
      ],
      "name": "setRoyaltiesRegistry",
      "outputs": [],
      "stateMutability": "nonpayable",
      "type": "function"
    },
    {
      "inputs": [
        {
          "internalType": "bytes4",
          "name": "assetType",
          "type": "bytes4"
        },
        {
          "internalType": "address",
          "name": "proxy",
          "type": "address"
        }
      ],
      "name": "setTransferProxy",
      "outputs": [],
      "stateMutability": "nonpayable",
      "type": "function"
    },
    {
      "inputs": [
        {
          "internalType": "address",
          "name": "newOwner",
          "type": "address"
        }
      ],
      "name": "transferOwnership",
      "outputs": [],
      "stateMutability": "nonpayable",
      "type": "function"
    },
    {
      "inputs": [
        {
          "internalType": "address",
          "name": "_to",
          "type": "address"
        }
      ],
      "name": "withdrawFaultyBid",
      "outputs": [],
      "stateMutability": "nonpayable",
      "type": "function"
    },
    {
      "inputs": [
        {
          "internalType": "address",
          "name": "newDefaultFeeReceiver",
          "type": "address"
        },
        {
          "internalType": "contract IRoyaltiesProvider",
          "name": "newRoyaltiesProvider",
          "type": "address"
        },
        {
          "internalType": "address",
          "name": "_transferProxy",
          "type": "address"
        },
        {
          "internalType": "address",
          "name": "_erc20TransferProxy",
          "type": "address"
        },
        {
          "internalType": "uint64",
          "name": "newProtocolFee",
          "type": "uint64"
        },
        {
          "internalType": "uint96",
          "name": "_minimalStepBasePoint",
          "type": "uint96"
        }
      ],
      "name": "__AuctionHouse721_init",
      "outputs": [],
      "stateMutability": "nonpayable",
      "type": "function"
    },
    {
      "inputs": [
        {
          "internalType": "address",
          "name": "_sellToken",
          "type": "address"
        },
        {
          "internalType": "uint256",
          "name": "_sellTokenId",
          "type": "uint256"
        },
        {
          "internalType": "address",
          "name": "_buyAsset",
          "type": "address"
        },
        {
          "internalType": "uint96",
          "name": "minimalPrice",
          "type": "uint96"
        },
        {
          "internalType": "bytes4",
          "name": "dataType",
          "type": "bytes4"
        },
        {
          "internalType": "bytes",
          "name": "data",
          "type": "bytes"
        }
      ],
      "name": "startAuction",
      "outputs": [],
      "stateMutability": "nonpayable",
      "type": "function"
    },
    {
      "inputs": [
        {
          "internalType": "uint256",
          "name": "_auctionId",
          "type": "uint256"
        },
        {
          "components": [
            {
              "internalType": "uint256",
              "name": "amount",
              "type": "uint256"
            },
            {
              "internalType": "bytes4",
              "name": "dataType",
              "type": "bytes4"
            },
            {
              "internalType": "bytes",
              "name": "data",
              "type": "bytes"
            }
          ],
          "internalType": "struct AuctionHouseBase.Bid",
          "name": "bid",
          "type": "tuple"
        }
      ],
      "name": "putBid",
      "outputs": [],
      "stateMutability": "payable",
      "type": "function"
    },
    {
      "inputs": [
        {
          "internalType": "uint256",
          "name": "_auctionId",
          "type": "uint256"
        }
      ],
      "name": "getMinimalNextBid",
      "outputs": [
        {
          "internalType": "uint256",
          "name": "minBid",
          "type": "uint256"
        }
      ],
      "stateMutability": "view",
      "type": "function"
    },
    {
      "inputs": [
        {
          "internalType": "uint256",
          "name": "_auctionId",
          "type": "uint256"
        }
      ],
      "name": "checkAuctionExistence",
      "outputs": [
        {
          "internalType": "bool",
          "name": "",
          "type": "bool"
        }
      ],
      "stateMutability": "view",
      "type": "function"
    },
    {
      "inputs": [
        {
          "internalType": "uint256",
          "name": "_auctionId",
          "type": "uint256"
        }
      ],
      "name": "finishAuction",
      "outputs": [],
      "stateMutability": "nonpayable",
      "type": "function"
    },
    {
      "inputs": [
        {
          "internalType": "uint256",
          "name": "_auctionId",
          "type": "uint256"
        }
      ],
      "name": "checkAuctionRangeTime",
      "outputs": [
        {
          "internalType": "bool",
          "name": "",
          "type": "bool"
        }
      ],
      "stateMutability": "view",
      "type": "function"
    },
    {
      "inputs": [
        {
          "internalType": "uint256",
          "name": "_auctionId",
          "type": "uint256"
        }
      ],
      "name": "cancel",
      "outputs": [],
      "stateMutability": "nonpayable",
      "type": "function"
    },
    {
      "inputs": [
        {
          "internalType": "uint256",
          "name": "_auctionId",
          "type": "uint256"
        },
        {
          "components": [
            {
              "internalType": "uint256",
              "name": "amount",
              "type": "uint256"
            },
            {
              "internalType": "bytes4",
              "name": "dataType",
              "type": "bytes4"
            },
            {
              "internalType": "bytes",
              "name": "data",
              "type": "bytes"
            }
          ],
          "internalType": "struct AuctionHouseBase.Bid",
          "name": "bid",
          "type": "tuple"
        }
      ],
      "name": "buyOut",
      "outputs": [],
      "stateMutability": "payable",
      "type": "function"
    },
    {
      "inputs": [
        {
          "internalType": "uint256",
          "name": "_auctionId",
          "type": "uint256"
        }
      ],
      "name": "getCurrentBuyer",
      "outputs": [
        {
          "internalType": "address",
          "name": "",
          "type": "address"
        }
      ],
      "stateMutability": "view",
      "type": "function"
    },
    {
      "inputs": [
        {
          "internalType": "uint256",
          "name": "_auctionId",
          "type": "uint256"
        }
      ],
      "name": "putBidWrapper",
      "outputs": [],
      "stateMutability": "payable",
      "type": "function"
    }
  ],
  "bytecode": "0x608060405234801561001057600080fd5b506156c680620000216000396000f3fe6080604052600436106101d85760003560e01c80635f4a436e11610102578063b0e21e8a11610095578063ec57834811610064578063ec5783481461050a578063eeffbfaf1461052a578063efa0598a1461054a578063f2fde38b1461056a576101d8565b8063b0e21e8a14610495578063bd9d21bd146104aa578063cf266ed0146104ca578063e66db25e146104ea576101d8565b80638da5cb5b116100d15780638da5cb5b1461042b578063914bf5f914610440578063a2a106b814610455578063a6f4a3e014610482576101d8565b80635f4a436e146103c15780636d8f0694146103e15780636eeb69db146103f6578063715018a614610416576101d8565b80632f5723361161017a5780633be89922116101495780633be899221461034e57806340e58ee51461036e57806343bc42d31461038e578063506a90e7146103ae576101d8565b80632f572336146102d757806330c642f1146102f957806336318815146103195780633abf6fd414610339576101d8565b8063150b7a02116101b6578063150b7a0214610255578063152b2c0a146102825780631cdfe3d8146102a25780632a6bf6a8146102c4576101d8565b806302097ab1146101dd5780630d6079641461021357806310782f8f14610240575b600080fd5b3480156101e957600080fd5b506101fd6101f83660046148e8565b61058a565b60405161020a9190614f1e565b60405180910390f35b34801561021f57600080fd5b5061023361022e366004614e2e565b6105a5565b60405161020a91906154a8565b34801561024c57600080fd5b506102336107eb565b34801561026157600080fd5b50610275610270366004614b75565b6107f2565b60405161020a9190614fd4565b34801561028e57600080fd5b5061023361029d366004614c5d565b610803565b3480156102ae57600080fd5b506102c26102bd3660046148e8565b61082e565b005b6102c26102d2366004614e2e565b6108b2565b3480156102e357600080fd5b506102ec610954565b60405161020a91906154d6565b34801561030557600080fd5b506102c2610314366004614d65565b610964565b34801561032557600080fd5b506102c2610334366004614eff565b610a35565b34801561034557600080fd5b506101fd610b07565b34801561035a57600080fd5b506102c26103693660046148e8565b610b16565b34801561037a57600080fd5b506102c2610389366004614e2e565b610b9a565b34801561039a57600080fd5b506102c26103a9366004614ee5565b610f04565b6102c26103bc366004614e46565b610faf565b3480156103cd57600080fd5b506102c26103dc366004614eff565b6115af565b3480156103ed57600080fd5b506101fd611692565b34801561040257600080fd5b506101fd610411366004614e2e565b6116a1565b34801561042257600080fd5b506102c26116c0565b34801561043757600080fd5b506101fd61176c565b34801561044c57600080fd5b506102ec61177b565b34801561046157600080fd5b50610475610470366004614e2e565b611792565b60405161020a9190614fc9565b6102c2610490366004614e46565b6117b7565b3480156104a157600080fd5b50610233611b33565b3480156104b657600080fd5b506102c26104c53660046148e8565b611b39565b3480156104d657600080fd5b506102c26104e5366004614e2e565b611ba9565b3480156104f657600080fd5b506102c2610505366004614b3d565b612025565b34801561051657600080fd5b50610475610525366004614e2e565b6120b5565b34801561053657600080fd5b506102c2610545366004614bde565b6121a3565b34801561055657600080fd5b506102c2610565366004614c88565b61229a565b34801561057657600080fd5b506102c26105853660046148e8565b612649565b60ff602052600090815260409020546001600160a01b031681565b60008181526101956020908152604080832081516101608101835281546001600160a01b0390811682526001808401548387015260028085015492831684870152600160a01b9092046001600160601b0316606080850191909152855190810186526003850180548252600486015460e01b6001600160e01b0319168289015260058601805488516101009582161595909502600019011694909404601f810189900489028401890188528084528998959760808901969395929490860193909291908301828280156106b95780601f1061068e576101008083540402835291602001916106b9565b820191906000526020600020905b81548152906001019060200180831161069c57829003601f168201915b50505091909252505050815260068201546001600160a01b03808216602080850191909152600160a01b928390046001600160601b0316604080860191909152600786015492831660608601529282046001600160401b03166080850152600160e01b90910460e01b6001600160e01b03191660a0840152600884018054835160026101006001841615026000190190921691909104601f810184900484028201840190945283815260c0909401939290918301828280156107bc5780601f10610791576101008083540402835291602001916107bc565b820191906000526020600020905b81548152906001019060200180831161079f57829003601f168201915b50505050508152505090506107e28160e001518260c0015183608001516000015161274c565b9150505b919050565b6101615481565b630a85bd0160e11b5b949350505050565b6001600160a01b03821660009081526033602090815260408083208484529091529020545b92915050565b6108366127a0565b6001600160a01b031661084761176c565b6001600160a01b031614610890576040805162461bcd60e51b81526020600482018190526024820152600080516020615671833981519152604482015290519081900360640190fd5b60fe80546001600160a01b0319166001600160a01b0392909216919091179055565b600081815261019560205260409020600201546001600160a01b0316156108f45760405162461bcd60e51b81526004016108eb90615056565b60405180910390fd5b6109518160405180606001604052803481526020017f4c23426613a5dc69e08fbd2787e6210aa679d4522e95a89d4dd88c4fd13a22836001600160e01b031916815260200160405180602001604052806000815250815250610faf565b50565b610162546001600160601b031681565b61096c6127a0565b6001600160a01b031661097d61176c565b6001600160a01b0316146109c6576040805162461bcd60e51b81526020600482018190526024820152600080516020615671833981519152604482015290519081900360640190fd5b6001600160e01b03198216600081815261012e60205260409081902080546001600160a01b0319166001600160a01b038516179055517f4b5aced933c0c9a88aeac3f0b3b72c5aaf75df8ebaf53225773248c4c315359390610a29908490614f1e565b60405180910390a25050565b610a3d6127a0565b6001600160a01b0316610a4e61176c565b6001600160a01b031614610a97576040805162461bcd60e51b81526020600482018190526024820152600080516020615671833981519152604482015290519081900360640190fd5b610162546040517fa13d21133118bfdffd1e4dc724faaadc5860dcb38ac5836e06f183ac5306b27991610ad7916001600160601b039091169084906154ea565b60405180910390a161016280546bffffffffffffffffffffffff19166001600160601b0392909216919091179055565b60fe546001600160a01b031681565b610b1e6127a0565b6001600160a01b0316610b2f61176c565b6001600160a01b031614610b78576040805162461bcd60e51b81526020600482018190526024820152600080516020615671833981519152604482015290519081900360640190fd5b60fd80546001600160a01b0319166001600160a01b0392909216919091179055565b600260ca541415610be0576040805162461bcd60e51b815260206004820152601f60248201526000805160206155bc833981519152604482015290519081900360640190fd5b600260ca81905560008281526101956020908152604080832081516101608101835281546001600160a01b039081168252600180840154838701528388015491821683860152600160a01b9091046001600160601b0316606080840191909152845190810185526003840180548252600485015460e01b6001600160e01b0319168288015260058501805487516101009582161595909502600019011699909904601f8101889004880284018801875280845297989397949660808901969295919492860193929190830182828015610cfa5780601f10610ccf57610100808354040283529160200191610cfa565b820191906000526020600020905b815481529060010190602001808311610cdd57829003601f168201915b50505091909252505050815260068201546001600160a01b03808216602080850191909152600160a01b928390046001600160601b0316604080860191909152600786015492831660608601529282046001600160401b03166080850152600160e01b90910460e01b6001600160e01b03191660a0840152600884018054835160026101006001841615026000190190921691909104601f810184900484028201840190945283815260c090940193929091830182828015610dfd5780601f10610dd257610100808354040283529160200191610dfd565b820191906000526020600020905b815481529060010190602001808311610de057829003601f168201915b5050509190925250505060a0810151909150610e18816127a4565b610e345760405162461bcd60e51b81526004016108eb906150e0565b610e3c6127a0565b6001600160a01b0316816001600160a01b031614610e6c5760405162461bcd60e51b81526004016108eb906151aa565b60e08201516001600160a01b031615610e975760405162461bcd60e51b81526004016108eb9061528b565b610ebc82600001518360200151600160008051602061560283398151915230866127b2565b610ecf83836000015184602001516127f6565b60405183907f2809c7e17bf978fbc7194c0a694b638c4215e9140cacc6c38ca36010b45697df90600090a25050600160ca5550565b610f0c6127a0565b6001600160a01b0316610f1d61176c565b6001600160a01b031614610f66576040805162461bcd60e51b81526020600482018190526024820152600080516020615671833981519152604482015290519081900360640190fd5b7fb51bef650ff5ad43303dbe2e500a74d4fd1bdc9ae05f046bece330e82ae0ba8760fc5482604051610f999291906154bf565b60405180910390a16001600160401b031660fc55565b600260ca541415610ff5576040805162461bcd60e51b815260206004820152601f60248201526000805160206155bc833981519152604482015290519081900360640190fd5b600260ca5560006110046127a0565b825160008581526101956020908152604080832081516101608101835281546001600160a01b0390811682526001808401548387015260028085015492831684870152600160a01b9092046001600160601b0316606080850191909152855190810186526003850180548252600486015460e01b6001600160e01b0319168289015260058601805488516101009582161595909502600019011694909404601f810189900489028401890188528084529a9b5098999798939794966080890196919591860193919083018282801561111d5780601f106110f25761010080835404028352916020019161111d565b820191906000526020600020905b81548152906001019060200180831161110057829003601f168201915b50505091909252505050815260068201546001600160a01b03808216602080850191909152600160a01b928390046001600160601b0316604080860191909152600786015492831660608601529282046001600160401b03166080850152600160e01b90910460e01b6001600160e01b03191660a0840152600884018054835160026101006001841615026000190190921691909104601f810184900484028201840190945283815260c0909401939290918301828280156112205780601f106111f557610100808354040283529160200191611220565b820191906000526020600020905b81548152906001019060200180831161120357829003601f168201915b5050505050815250509050600081606001519050600061124a8361014001518461012001516128a4565b9050600061126087604001518860200151612900565b6000015190506103e88461010001516001600160401b031661128183612954565b845161128c90612954565b010111156112ac5760405162461bcd60e51b81526004016108eb906150bc565b60408401516001600160a01b03166112ca5786516112ca908761295a565b6112f38460a0015185606001516001600160601b031684604001516001600160601b03166129a8565b6112fd82866129de565b1561131b576113108488848b858b612a1f565b5050505050506115a6565b60e084015142906001600160a01b03166113ac576020830151611348906001600160601b03831690612bea565b60008a81526101956020526040902060020180546001600160601b03808416600160a01b026001600160a01b039092169190911790915560c0870151919550168610156113a75760405162461bcd60e51b81526004016108eb906151e1565b611423565b866001600160a01b03168560e001516001600160a01b031614156113e25760405162461bcd60e51b81526004016108eb906152c2565b60006113ff8660e001518760c0015188608001516000015161274c565b9050808710156114215760405162461bcd60e51b81526004016108eb90615115565b505b60006114328660400151612c50565b905061145286604001518760e001518a8960800151858e60000151612ca4565b60008a815261019560209081526040918290208b51600382019081558c83015160048301805463ffffffff191660e09290921c919091179055928c015180518d94936114a393600501920190614584565b50505060008a81526101956020526040812060070180546001600160a01b0319166001600160a01b038b16179055610162546001600160601b03169061038482106114f0576103846114f2565b815b90506001600160601b038082169061150c90891686612cbd565b6001600160601b031610156115615761152e6001600160601b03851682612bea565b60008d81526101956020526040902060020180546001600160a01b0316600160a01b6001600160601b0384160217905596505b8b7f0e54eff26401bf69b81b26f60bd85ef47f5d85275c1d268d84f68d6897431c478b89604051611593929190614f32565b60405180910390a2505050505050505050505b5050600160ca55565b6115b76127a0565b6001600160a01b03166115c861176c565b6001600160a01b031614611611576040805162461bcd60e51b81526020600482018190526024820152600080516020615671833981519152604482015290519081900360640190fd5b7f30bd79db520376a437e44c44c2b3ec63f6730f4df0a95f56ea39765f1420cab7610162600c9054906101000a90046001600160601b0316826040516116589291906154ea565b60405180910390a161016280546001600160601b03909216600160601b026bffffffffffffffffffffffff60601b19909216919091179055565b60fd546001600160a01b031681565b600090815261019560205260409020600701546001600160a01b031690565b6116c86127a0565b6001600160a01b03166116d961176c565b6001600160a01b031614611722576040805162461bcd60e51b81526020600482018190526024820152600080516020615671833981519152604482015290519081900360640190fd5b6098546040516000916001600160a01b0316907f8be0079c531659141344cd1fd0a4f28419497f9722a3daafe3b4186f6b6457e0908390a3609880546001600160a01b0319169055565b6098546001600160a01b031690565b61016254600160601b90046001600160601b031681565b60008181526101956020526040812060060154610828906001600160a01b03166127a4565b600260ca5414156117fd576040805162461bcd60e51b815260206004820152601f60248201526000805160206155bc833981519152604482015290519081900360640190fd5b600260ca81905560008381526101956020908152604080832081516101608101835281546001600160a01b039081168252600180840154838701528388015491821683860152600160a01b9091046001600160601b0316606080840191909152845190810185526003840180548252600485015460e01b6001600160e01b0319168288015260058501805487516101009582161595909502600019011699909904601f81018890048802840188018752808452979893979496608089019692959194928601939291908301828280156119175780601f106118ec57610100808354040283529160200191611917565b820191906000526020600020905b8154815290600101906020018083116118fa57829003601f168201915b50505091909252505050815260068201546001600160a01b03808216602080850191909152600160a01b928390046001600160601b0316604080860191909152600786015492831660608601529282046001600160401b03166080850152600160e01b90910460e01b6001600160e01b03191660a0840152600884018054835160026101006001841615026000190190921691909104601f810184900484028201840190945283815260c090940193929091830182828015611a1a5780601f106119ef57610100808354040283529160200191611a1a565b820191906000526020600020905b8154815290600101906020018083116119fd57829003601f168201915b50505050508152505090506000611a3b8261014001518361012001516128a4565b9050611a668260a0015183606001516001600160601b031683604001516001600160601b03166129a8565b6000611a7a84604001518560200151612900565b518451909150611a8b9083906129de565b611aa75760405162461bcd60e51b81526004016108eb9061525c565b6103e88361010001516001600160401b0316611ac283612954565b8451611acd90612954565b01011115611aed5760405162461bcd60e51b81526004016108eb906150bc565b6000611af76127a0565b60408501519091506001600160a01b0316611b18578451611b18908261295a565b611b26848685898686612a1f565b5050600160ca5550505050565b60fc5481565b6000611b436127a0565b6001600160a01b0381166000908152610160602052604090205490915080611b7d5760405162461bcd60e51b81526004016108eb90615353565b6001600160a01b0380831660009081526101606020526040812055611ba490841682612d2c565b505050565b600260ca541415611bef576040805162461bcd60e51b815260206004820152601f60248201526000805160206155bc833981519152604482015290519081900360640190fd5b600260ca81905560008281526101956020908152604080832081516101608101835281546001600160a01b039081168252600180840154838701528388015491821683860152600160a01b9091046001600160601b0316606080840191909152845190810185526003840180548252600485015460e01b6001600160e01b0319168288015260058501805487516101009582161595909502600019011699909904601f8101889004880284018801875280845297989397949660808901969295919492860193929190830182828015611d095780601f10611cde57610100808354040283529160200191611d09565b820191906000526020600020905b815481529060010190602001808311611cec57829003601f168201915b50505091909252505050815260068201546001600160a01b03808216602080850191909152600160a01b928390046001600160601b0316604080860191909152600786015492831660608601529282046001600160401b03166080850152600160e01b90910460e01b6001600160e01b03191660a0840152600884018054835160026101006001841615026000190190921691909104601f810184900484028201840190945283815260c090940193929091830182828015611e0c5780601f10611de157610100808354040283529160200191611e0c565b820191906000526020600020905b815481529060010190602001808311611def57829003601f168201915b5050505050815250509050611e248160a001516127a4565b611e405760405162461bcd60e51b81526004016108eb906150e0565b6000611e568261014001518361012001516128a4565b9050611e7c82606001516001600160601b031682604001516001600160601b0316612dc4565b158015611e95575060e08201516001600160a01b031615155b611eb15760405162461bcd60e51b81526004016108eb906153b0565b6000611ecd836080015160400151846080015160200151612900565b6000015190506120056040518060a00160405280611f04866000015187602001516001600080516020615602833981519152612e0d565b8152602001611f168660a00151612e5b565b8152602001611f288560000151612ef6565b81526339d690a360e11b60005261012e60209081527f7d19e2b8a217fe03fb4454578d48cd35c47b3709623b40a40dad7ab8ca53ecb3546001600160a01b03169082015230604091820152805160a081018252908601516080870151518291611f9091612f6a565b8152602001611fa28760e00151612e5b565b8152602001611fb085612ef6565b8152602001611fc28760400151612c50565b6001600160a01b0316815230602091820152604080516060810182526101008901516001600160401b031681526103e892810192909252810160025b9052612fd1565b505061201a84846000015185602001516127f6565b5050600160ca555050565b61202d6127a0565b6001600160a01b031661203e61176c565b6001600160a01b031614612087576040805162461bcd60e51b81526020600482018190526024820152600080516020615671833981519152604482015290519081900360640190fd5b6001600160a01b03918216600090815260ff6020526040902080546001600160a01b03191691909216179055565b6000818152610195602090815260408083206002808201546008909201805484516101006001831615026000190190911692909204601f810186900486028301860190945283825261082894600160a01b9093046001600160601b031693612191938301828280156121685780601f1061213d57610100808354040283529160200191612168565b820191906000526020600020905b81548152906001019060200180831161214b57829003601f168201915b50505060008881526101956020526040902060070154600160e01b900460e01b91506128a49050565b604001516001600160601b0316612dc4565b600054610100900460ff16806121bc57506121bc6130e0565b806121ca575060005460ff16155b6122055760405162461bcd60e51b815260040180806020018281038252602e815260200180615622602e913960400191505060405180910390fd5b600054610100900460ff16158015612230576000805460ff1961ff0019909116610100171660011790555b6122386130f1565b612240613192565b6122486130f1565b61225061328b565b61225982613331565b6122638585613419565b612277836001600160401b031688886134c4565b61227f6130f1565b8015612291576000805461ff00191690555b50505050505050565b60fc5460006122a983856128a4565b6101625460208201519192506001600160601b039081169116108015906122f357506305265c006fffffffffffffffffffffffffffffffff1681602001516001600160601b031611155b61230f5760405162461bcd60e51b81526004016108eb9061517e565b6103e8826123208360000151612954565b01111561233f5760405162461bcd60e51b81526004016108eb906150bc565b600061234961359d565b905060006123556127a0565b905060006040518061016001604052808c6001600160a01b031681526020018b81526020018a6001600160a01b0316815260200160006001600160601b0316815260200160405180606001604052806000815260200160006001600160e01b0319168152602001604051806020016040528060008152508152508152602001836001600160a01b03168152602001896001600160601b0316815260200160006001600160a01b03168152602001866001600160401b03168152602001886001600160e01b031916815260200187815250905080610195600085815260200190815260200160002060008201518160000160006101000a8154816001600160a01b0302191690836001600160a01b031602179055506020820151816001015560408201518160020160006101000a8154816001600160a01b0302191690836001600160a01b0316021790555060608201518160020160146101000a8154816001600160601b0302191690836001600160601b031602179055506080820151816003016000820151816000015560208201518160010160006101000a81548163ffffffff021916908360e01c02179055506040820151816002019080519060200190612520929190614584565b50505060a082015160068201805460c08501516001600160601b0316600160a01b9081026001600160a01b039485166001600160a01b03199384161785161790925560e0808601516007860180546101008901516101208a015190941c600160e01b026001600160e01b036001600160401b0390951690960267ffffffffffffffff60a01b199390971694169390931716939093179290921617905561014082015180516125d8916008840191602090910190614584565b509050506125f98b8b600160008051602061560283398151915286306127b2565b6126048b8b856135ac565b827f5d551e2a2cc977fd8c530317059b4f2d9f504fb82f7dfad736f8d56679bcdfd0836040516126349190614f1e565b60405180910390a25050505050505050505050565b6126516127a0565b6001600160a01b031661266261176c565b6001600160a01b0316146126ab576040805162461bcd60e51b81526020600482018190526024820152600080516020615671833981519152604482015290519081900360640190fd5b6001600160a01b0381166126f05760405162461bcd60e51b81526004018080602001828103825260268152602001806155dc6026913960400191505060405180910390fd5b6098546040516001600160a01b038084169216907f8be0079c531659141344cd1fd0a4f28419497f9722a3daafe3b4186f6b6457e090600090a3609880546001600160a01b0319166001600160a01b0392909216919091179055565b60006001600160a01b03841661276c57506001600160601b038216612799565b610162546127969061278f908490600160601b90046001600160601b03166135d2565b83906135ea565b90505b9392505050565b3390565b6001600160a01b0316151590565b6127ee6127c187878787612e0d565b6001600160e01b03198516600090815261012e6020526040902054849084906001600160a01b0316613644565b505050505050565b60405183907f53ab6823c4ae8c865033f94ee16313a21c6ade19520d884dc804d622a43bc67490600090a261282b8282613a3b565b60008381526101956020526040812080546001600160a01b031916815560018101829055600281018290556003810182815560048201805463ffffffff191690559091908161287d6005850182614610565b50506000600683018190556007830181905561289d906008840190614610565b5050505050565b6128ac614654565b6001600160e01b03198216632611a13360e11b14156128e8578251156128e357828060200190518101906128e09190614d80565b90505b610828565b60405162461bcd60e51b81526004016108eb90615380565b61290861467b565b6001600160e01b03198216632611a13360e11b141561293c578251156128e357828060200190518101906128e09190614df4565b60405162461bcd60e51b81526004016108eb906153fb565b60a01c90565b348281101561297b5760405162461bcd60e51b81526004016108eb90615208565b60006129878285613a63565b905080156129a2576129a26001600160a01b03841682612d2c565b50505050565b6129b1836127a4565b80156129c257506129c28282612dc4565b611ba45760405162461bcd60e51b81526004016108eb906152ef565b60008083606001516001600160601b0316118015612a0957508183606001516001600160601b031611155b15612a1657506001610828565b50600092915050565b6000612a2e8760400151612c50565b9050612a48876080015188604001518960e0015184613aba565b60408701516000906001600160a01b0316612a64575030612a67565b50815b612b906040518060a00160405280612a988b600001518c602001516001600080516020615602833981519152612e0d565b8152602001612aaa8b60a00151612e5b565b8152602001612abc8960000151612ef6565b81526339d690a360e11b60005261012e60209081527f7d19e2b8a217fe03fb4454578d48cd35c47b3709623b40a40dad7ab8ca53ecb3546001600160a01b03169082015230604091820152805160a081018252908b01518a518291612b2091612f6a565b8152602001612b2e87612e5b565b8152602001612b3c88612ef6565b8152602001856001600160a01b03168152602001846001600160a01b031681525060405180606001604052808c61010001516001600160401b031681526020016103e88152602001600280811115611ffe57fe5b5050612ba58589600001518a602001516127f6565b610161547f10373d853b64ae416c332eacb659de0f9bfc4fa3601556194abce1991061efbe84604051612bd89190614f1e565b60405180910390a25050505050505050565b60008282016001600160601b038085169082161015612799576040805162461bcd60e51b815260206004820152601b60248201527f536166654d6174683a206164646974696f6e206f766572666c6f770000000000604482015290519081900360640190fd5b6000806001600160a01b038316156108285750506322ba176160e21b6000525061012e6020527f66dac2712484e57696cd5b0a7c5522ea4a109a8cbe86d42ac52cc349ee8e1d64546001600160a01b031690565b612cb083878785613aba565b6127ee8187863086613bda565b6000826001600160601b0316826001600160601b03161115612d26576040805162461bcd60e51b815260206004820152601e60248201527f536166654d6174683a207375627472616374696f6e206f766572666c6f770000604482015290519081900360640190fd5b50900390565b6040516000906001600160a01b0384169083908381818185875af1925050503d8060008114612d77576040519150601f19603f3d011682016040523d82523d6000602084013e612d7c565b606091505b5050905080611ba4576040805162461bcd60e51b815260206004820152600f60248201526e1d1c985b9cd9995c8819985a5b1959608a1b604482015290519081900360640190fd5b6000428215801590612dd557508083115b15612de4576000915050610828565b600084118015612df45750808411155b15612e03576000915050610828565b5060019392505050565b612e1561468e565b602080820184905281516001600160e01b031984169052604051612e3d918791879101614fb0565b60408051601f19818403018152919052815160200152949350505050565b60408051600180825281830190925260609160009190816020015b612e7e6146ae565b815260200190600190039081612e765790505090508281600081518110612ea157fe5b6020026020010151600001906001600160a01b031690816001600160a01b03168152505061271081600081518110612ed557fe5b6020908102919091018101516001600160601b039092169101529050919050565b60408051600180825281830190925260609160009190816020015b612f196146ae565b815260200190600190039081612f115790505090508281600081518110612f3c57fe5b60209081029190910101516001600160a01b039091169052612f5d83612954565b81600081518110612ed557fe5b612f7261468e565b602081018290526001600160a01b038316612f985780516355575f5d60e11b9052610828565b80516322ba176160e21b9052604051612fb5908490602001614f1e565b60408051601f1981840301815291905281516020015292915050565b8251602090810151835190910151600183604001516002811115612ff157fe5b141561303b5761300b858585600001518660200151613bef565b9150613036846000015160000151856000015160200151866080015188602001518860600151613e6b565b6130d8565b60028360400151600281111561304d57fe5b141561309257613067848685600001518660200151613bef565b9050613036856000015160000151866000015160200151876080015187602001518960600151613e6b565b8451805160209182015160808801519287015160608901516130b5949190613e6b565b8351805160209182015160808701519288015160608801516130d8949190613e6b565b935093915050565b60006130eb30613fe5565b15905090565b600054610100900460ff168061310a575061310a6130e0565b80613118575060005460ff16155b6131535760405162461bcd60e51b815260040180806020018281038252602e815260200180615622602e913960400191505060405180910390fd5b600054610100900460ff1615801561317e576000805460ff1961ff0019909116610100171660011790555b8015610951576000805461ff001916905550565b600054610100900460ff16806131ab57506131ab6130e0565b806131b9575060005460ff16155b6131f45760405162461bcd60e51b815260040180806020018281038252602e815260200180615622602e913960400191505060405180910390fd5b600054610100900460ff1615801561321f576000805460ff1961ff0019909116610100171660011790555b60006132296127a0565b609880546001600160a01b0319166001600160a01b038316908117909155604051919250906000907f8be0079c531659141344cd1fd0a4f28419497f9722a3daafe3b4186f6b6457e0908290a3508015610951576000805461ff001916905550565b600054610100900460ff16806132a457506132a46130e0565b806132b2575060005460ff16155b6132ed5760405162461bcd60e51b815260040180806020018281038252602e815260200180615622602e913960400191505060405180910390fd5b600054610100900460ff16158015613318576000805460ff1961ff0019909116610100171660011790555b600160ca558015610951576000805461ff001916905550565b600054610100900460ff168061334a575061334a6130e0565b80613358575060005460ff16155b6133935760405162461bcd60e51b815260040180806020018281038252602e815260200180615622602e913960400191505060405180910390fd5b600054610100900460ff161580156133be576000805460ff1961ff0019909116610100171660011790555b60016101615561016280546103846bffffffffffffffffffffffff19909116176bffffffffffffffffffffffff60601b1916600160601b6001600160601b038516021790558015613415576000805461ff00191690555b5050565b61012e6020527f66dac2712484e57696cd5b0a7c5522ea4a109a8cbe86d42ac52cc349ee8e1d6480546001600160a01b039283166001600160a01b0319918216179091557f7d19e2b8a217fe03fb4454578d48cd35c47b3709623b40a40dad7ab8ca53ecb3805493909216928116831790915563025ceed960e61b6000527f0fe703a970ae3b662eee99e0b622325124ff4b134531cb07e2cdcc6f1d12396f80549091169091179055565b600054610100900460ff16806134dd57506134dd6130e0565b806134eb575060005460ff16155b6135265760405162461bcd60e51b815260040180806020018281038252602e815260200180615622602e913960400191505060405180910390fd5b600054610100900460ff16158015613551576000805460ff1961ff0019909116610100171660011790555b60fc84905560fe80546001600160a01b038086166001600160a01b03199283161790925560fd80549285169290911691909117905580156129a2576000805461ff001916905550505050565b61016180546001810190915590565b6001600160a01b0390921660009081526033602090815260408083209383529290522055565b60006127996127106135e48585613feb565b90614044565b600082820183811015612799576040805162461bcd60e51b815260206004820152601b60248201527f536166654d6174683a206164646974696f6e206f766572666c6f770000000000604482015290519081900360640190fd5b8351516001600160e01b0319166339d690a360e11b141561378a5760008085600001516020015180602001905181019061367e9190614b10565b9150915085602001516001146136a65760405162461bcd60e51b81526004016108eb90615230565b6001600160a01b03851630141561371e57604051632142170760e11b81526001600160a01b038316906342842e0e906136e790309088908690600401614f54565b600060405180830381600087803b15801561370157600080fd5b505af1158015613715573d6000803e3d6000fd5b50505050613783565b604051637b84dc8360e11b81526001600160a01b0384169063f709b9069061375090859089908990879060040161502c565b600060405180830381600087803b15801561376a57600080fd5b505af115801561377e573d6000803e3d6000fd5b505050505b50506129a2565b8351516001600160e01b0319166322ba176160e21b14156138cd5760008460000151602001518060200190518101906137c39190614904565b90506001600160a01b03841630141561385f57602085015160405163a9059cbb60e01b81526001600160a01b0383169163a9059cbb91613807918791600401614fb0565b602060405180830381600087803b15801561382157600080fd5b505af1158015613835573d6000803e3d6000fd5b505050506040513d601f19601f820116820180604052508101906138599190614d45565b506138c7565b602085015160405163776062c360e01b81526001600160a01b0384169163776062c3916138949185918991899160040161502c565b600060405180830381600087803b1580156138ae57600080fd5b505af11580156138c2573d6000803e3d6000fd5b505050505b506129a2565b8351516001600160e01b03191663025ceed960e61b141561398a576000808560000151602001518060200190518101906139079190614b10565b90925090506001600160a01b038516301415613952576020860151604051637921219560e11b81526001600160a01b0384169163f242432a916136e791309189918791600401614f78565b6020860151604051639c1c2ee960e01b81526001600160a01b03851691639c1c2ee9916137509186918a918a91889190600401614fe9565b8351516001600160e01b0319166355575f5d60e11b14156139d3576001600160a01b03821630146139ce5760208401516139ce906001600160a01b03841690612d2c565b6129a2565b6040516354bc0cf160e01b81526001600160a01b038216906354bc0cf190613a0390879087908790600401615427565b600060405180830381600087803b158015613a1d57600080fd5b505af1158015613a31573d6000803e3d6000fd5b5050505050505050565b6001600160a01b03909116600090815260336020908152604080832093835292905290812055565b600082821115612d26576040805162461bcd60e51b815260206004820152601e60248201527f536166654d6174683a207375627472616374696f6e206f766572666c6f770000604482015290519081900360640190fd5b6001600160a01b038216613acd576129a2565b6001600160a01b038316613bcf576000826001600160a01b03168560000151604051613af890614f1b565b60006040518083038185875af1925050503d8060008114613b35576040519150601f19603f3d011682016040523d82523d6000602084013e613b3a565b606091505b50509050806138c7576001600160a01b038316600090815261016060205260408120548651909190613b6c90836135ea565b6001600160a01b03861660008181526101606020526040908190208390558951905192935090917e13bff06d622c14d54757ee0547a817dc3e491fb8da534f108a531b016dee3c91613bbf9185906154b1565b60405180910390a25050506129a2565b83516129a290843085855b61289d613be78587612f6a565b848484613644565b6000613c09856000015160200151848760400151856140ab565b90506000613c33828760000151602001518860800151878a60000151600001518b60600151614104565b865180518751516020808a015193015160808b015160608c0151959650613c619593949293879291906141ca565b90508560400151516001148015613c7d57508460400151516001145b8015613cd257508560400151600081518110613c9557fe5b6020026020010151600001516001600160a01b03168560400151600081518110613cbb57fe5b6020026020010151600001516001600160a01b0316145b15613de857604080516001808252818301909252600091816020015b613cf66146ae565b815260200190600190039081613cee5790505090508560400151600081518110613d1c57fe5b60200260200101516000015181600081518110613d3557fe5b60209081029190910101516001600160a01b03909116905260408701518051600090613d5d57fe5b6020026020010151602001518660400151600081518110613d7a57fe5b6020026020010151602001510181600081518110613d9457fe5b6020026020010151602001906001600160601b031690816001600160601b031681525050613dde87600001516000015183896000015160200151848b608001518c606001516142cf565b509150613e419050565b613e128660000151600001518288600001516020015189604001518a608001518b606001516142cf565b5086518051602090910151604088015160808a015160608b0151949550613e3d9486939291906142cf565b5090505b613e6286600001516000015182886080015188602001518a60600151613e6b565b50949350505050565b6000825111613e8c5760405162461bcd60e51b81526004016108eb9061513a565b600084815b6001855103811015613f5b576000613ed2868381518110613eae57fe5b6020026020010151602001516001600160601b0316896135d290919063ffffffff16565b9050613f07868381518110613ee357fe5b6020026020010151602001516001600160601b0316856135ea90919063ffffffff16565b93508015613f5257613f198382613a63565b9250613f5260405180604001604052808b81526020018381525088888581518110613f4057fe5b60200260200101516000015188613644565b50600101613e91565b50600084600186510381518110613f6e57fe5b60200260200101519050613f9881602001516001600160601b0316846135ea90919063ffffffff16565b92508261271014613fbb5760405162461bcd60e51b81526004016108eb9061531c565b8115613a3157613a3160405180604001604052808a81526020018481525087836000015187613644565b3b151590565b600082613ffa57506000610828565b8282028284828161400757fe5b04146127995760405162461bcd60e51b81526004018080602001828103825260218152602001806156506021913960400191505060405180910390fd5b600080821161409a576040805162461bcd60e51b815260206004820152601a60248201527f536166654d6174683a206469766973696f6e206279207a65726f000000000000604482015290519081900360640190fd5b8183816140a357fe5b049392505050565b600081156140ba5750836107fb565b60006140d06140c987876135d2565b87906135ea565b905060005b84518110156140fa576140f061278f868381518110613eae57fe5b91506001016140d5565b5095945050505050565b6000806000614114898988614384565b909250905080156141be5784516000906001600160e01b0319166322ba176160e21b141561415b5785602001518060200190518101906141549190614904565b9050614194565b85516001600160e01b03191663025ceed960e61b1415614194576000866020015180602001905181019061418f9190614b10565b509150505b6141bc604051806040016040528088815260200184815250896141b6846143a6565b88613644565b505b50979650505050505050565b6000806141d6886143e3565b9050805160011480156141ea575086516001145b80156142375750866000815181106141fe57fe5b6020026020010151600001516001600160a01b03168160008151811061422057fe5b6020026020010151600001516001600160a01b0316145b15614288576113888160008151811061424c57fe5b6020026020010151602001516001600160601b0316111561427f5760405162461bcd60e51b81526004016108eb90615085565b859150506142c4565b6000806142998b8989868a8a6142cf565b915091506113888111156142bf5760405162461bcd60e51b81526004016108eb90615085565b509150505b979650505050505050565b846000805b8551811015614378576143108682815181106142ec57fe5b6020026020010151602001516001600160601b0316836135ea90919063ffffffff16565b9150600061433f848989858151811061432557fe5b6020026020010151602001516001600160601b0316614384565b9094509050801561436f5761436f60405180604001604052808c81526020018381525087898581518110613f4057fe5b506001016142d4565b50965096945050505050565b60008061439a8561439586866135d2565b614557565b91509150935093915050565b6001600160a01b03808216600090815260ff602052604081205490911680156143d05790506107e6565b505060fe546001600160a01b0316919050565b80516060906001600160e01b03191663025ceed960e61b1480614417575081516001600160e01b0319166339d690a360e11b145b156144cc5760008083602001518060200190518101906144379190614b10565b60fd54604051634e53ee3d60e11b81529294509092506001600160a01b031690639ca7dc7a9061446d9085908590600401614fb0565b600060405180830381600087803b15801561448757600080fd5b505af115801561449b573d6000803e3d6000fd5b505050506040513d6000823e601f3d908101601f191682016040526144c39190810190614d13565b925050506107e6565b81516001600160e01b03191662737ea960e61b141561450d57600082602001518060200190518101906144ff9190614920565b6080015192506107e6915050565b81516001600160e01b03191663d8f960c160e01b141561454f57600082602001518060200190518101906145419190614a1d565b6060015192506107e6915050565b506060919050565b600080828411156145765761456c8484613a63565b915082905061457d565b5060009050825b9250929050565b828054600181600116156101000203166002900490600052602060002090601f0160209004810192826145ba5760008555614600565b82601f106145d357805160ff1916838001178555614600565b82800160010185558215614600579182015b828111156146005782518255916020019190600101906145e5565b5061460c9291506146c5565b5090565b50805460018160011615610100020316600290046000825580601f106146365750610951565b601f01602090049060005260206000209081019061095191906146c5565b60408051608081018252600080825260208201819052918101829052606081019190915290565b6040518060200160405280600081525090565b60405180604001604052806146a16146da565b8152602001600081525090565b604080518082019091526000808252602082015290565b5b8082111561460c57600081556001016146c6565b60408051808201909152600081526060602082015290565b600061470561470084615544565b615504565b905082815283838301111561471957600080fd5b612799836020830184615565565b600082601f830112614737578081fd5b8151602061474761470083615527565b82815281810190858301855b85811015614791578151880189603f82011261476d578788fd5b61477e8a87830151604084016146f2565b8552509284019290840190600101614753565b5090979650505050505050565b600082601f8301126147ae578081fd5b815160206147be61470083615527565b828152818101908583016040808602880185018910156147dc578687fd5b865b868110156148405781838b0312156147f4578788fd5b81518281018181106001600160401b038211171561480e57fe5b8352835161481b81615591565b81528387015161482a816155a6565b81880152855293850193918101916001016147de565b509198975050505050505050565b80356001600160e01b0319811681146107e657600080fd5b600082601f830112614876578081fd5b813561488461470082615544565b818152846020838601011115614898578283fd5b816020850160208301379081016020019190915292915050565b600082601f8301126148c2578081fd5b612799838351602085016146f2565b80356001600160401b03811681146107e657600080fd5b6000602082840312156148f9578081fd5b813561279981615591565b600060208284031215614915578081fd5b815161279981615591565b60008060408385031215614932578081fd5b825161493d81615591565b60208401519092506001600160401b0380821115614959578283fd5b9084019060c0828703121561496c578283fd5b61497660c0615504565b8251815260208301518281111561498b578485fd5b614997888286016148b2565b602083015250604083015160408201526060830151828111156149b8578485fd5b6149c48882860161479e565b6060830152506080830151828111156149db578485fd5b6149e78882860161479e565b60808301525060a0830151828111156149fe578485fd5b614a0a88828601614727565b60a0830152508093505050509250929050565b60008060408385031215614a2f578182fd5b8251614a3a81615591565b60208401519092506001600160401b0380821115614a56578283fd5b9084019060a08287031215614a69578283fd5b614a7360a0615504565b82518152602083015182811115614a88578485fd5b614a94888286016148b2565b602083015250604083015182811115614aab578485fd5b614ab78882860161479e565b604083015250606083015182811115614ace578485fd5b614ada8882860161479e565b606083015250608083015182811115614af1578485fd5b614afd88828601614727565b6080830152508093505050509250929050565b60008060408385031215614b22578182fd5b8251614b2d81615591565b6020939093015192949293505050565b60008060408385031215614b4f578182fd5b8235614b5a81615591565b91506020830135614b6a81615591565b809150509250929050565b60008060008060808587031215614b8a578182fd5b8435614b9581615591565b93506020850135614ba581615591565b92506040850135915060608501356001600160401b03811115614bc6578182fd5b614bd287828801614866565b91505092959194509250565b60008060008060008060c08789031215614bf6578384fd5b8635614c0181615591565b95506020870135614c1181615591565b94506040870135614c2181615591565b93506060870135614c3181615591565b9250614c3f608088016148d1565b915060a0870135614c4f816155a6565b809150509295509295509295565b60008060408385031215614c6f578182fd5b8235614c7a81615591565b946020939093013593505050565b60008060008060008060c08789031215614ca0578384fd5b8635614cab81615591565b9550602087013594506040870135614cc281615591565b93506060870135614cd2816155a6565b9250614ce06080880161484e565b915060a08701356001600160401b03811115614cfa578182fd5b614d0689828a01614866565b9150509295509295509295565b600060208284031215614d24578081fd5b81516001600160401b03811115614d39578182fd5b6107fb8482850161479e565b600060208284031215614d56578081fd5b81518015158114612799578182fd5b60008060408385031215614d77578182fd5b614b5a8361484e565b600060808284031215614d91578081fd5b604051608081018181106001600160401b0382111715614dad57fe5b604052825181526020830151614dc2816155a6565b60208201526040830151614dd5816155a6565b60408201526060830151614de8816155a6565b60608201529392505050565b600060208284031215614e05578081fd5b604051602081018181106001600160401b0382111715614e2157fe5b6040529151825250919050565b600060208284031215614e3f578081fd5b5035919050565b60008060408385031215614e58578182fd5b8235915060208301356001600160401b0380821115614e75578283fd5b9084019060608287031215614e88578283fd5b604051606081018181108382111715614e9d57fe5b60405282358152614eb06020840161484e565b6020820152604083013582811115614ec6578485fd5b614ed288828601614866565b6040830152508093505050509250929050565b600060208284031215614ef6578081fd5b612799826148d1565b600060208284031215614f10578081fd5b8135612799816155a6565b90565b6001600160a01b0391909116815260200190565b6001600160a01b039290921682526001600160601b0316602082015260400190565b6001600160a01b039384168152919092166020820152604081019190915260600190565b6001600160a01b0394851681529290931660208301526040820152606081019190915260a06080820181905260009082015260c00190565b6001600160a01b03929092168252602082015260400190565b901515815260200190565b6001600160e01b031991909116815260200190565b6001600160a01b03958616815293851660208501529190931660408301526060820192909252608081019190915260c060a0820181905260009082015260e00190565b6001600160a01b039485168152928416602084015292166040820152606081019190915260800190565b6020808252601590820152741bdb9b1e4811551208189a591cc8185b1b1bddd959605a1b604082015260600190565b6020808252601d908201527f526f79616c746965732061726520746f6f206869676820283e35302529000000604082015260600190565b6020808252600a908201526977726f6e67206665657360b01b604082015260600190565b6020808252818101527f7468657265206973206e6f2061756374696f6e20776974682074686973206964604082015260600190565b6020808252600b908201526a62696420746f6f206c6f7760a81b604082015260600190565b60208082526024908201527f7472616e736665725061796f7574733a206e6f7468696e6720746f207472616e60408201526339b332b960e11b606082015260800190565b60208082526012908201527134b731b7b93932b1ba10323ab930ba34b7b760711b604082015260600190565b6020808252601a908201527f61756374696f6e206f776e6572206e6f74206465746563746564000000000000604082015260600190565b6020808252600d908201526c189a59081d1bdbc81cdb585b1b609a1b604082015260600190565b6020808252600e908201526d0dcdee840cadcdeeaced0408aa8960931b604082015260600190565b60208082526012908201527132b9319b9918903b30b63ab29032b93937b960711b604082015260600190565b6020808252601590820152741b9bdd08195b9bdd59da08199bdc88189d5e5bdd5d605a1b604082015260600190565b6020808252601d908201527f63616e27742063616e63656c2061756374696f6e207769746820626964000000604082015260600190565b602080825260139082015272185b1c9958591e481dda5b9b9a5b99c8189a59606a1b604082015260600190565b60208082526013908201527261756374696f6e20697320696e61637469766560681b604082015260600190565b6020808252601e908201527f53756d207061796f75747320427073206e6f7420657175616c20313030250000604082015260600190565b6020808252601390820152726e6f7468696e6720746f20776974686472617760681b604082015260600190565b60208082526016908201527577726f6e672061756374696f6e20646174615479706560501b604082015260600190565b6020808252602b908201527f6f6e6c7920656e6465642061756374696f6e2077697468206269642063616e2060408201526a189948199a5b9a5cda195960aa1b606082015260800190565b60208082526012908201527177726f6e672062696420646174615479706560701b604082015260600190565b60006060825284516040606084015263ffffffff60e01b81511660a084015260208101519050604060c084015280518060e085015261010061546f8282870160208601615565565b60209788015160808601526001600160a01b039687169785019790975293909416604083015250601f909101601f191601909101919050565b90815260200190565b918252602082015260400190565b9182526001600160401b0316602082015260400190565b6001600160601b0391909116815260200190565b6001600160601b0392831681529116602082015260400190565b6040518181016001600160401b038111828210171561551f57fe5b604052919050565b60006001600160401b0382111561553a57fe5b5060209081020190565b60006001600160401b0382111561555757fe5b50601f01601f191660200190565b60005b83811015615580578181015183820152602001615568565b838111156129a25750506000910152565b6001600160a01b038116811461095157600080fd5b6001600160601b038116811461095157600080fdfe5265656e7472616e637947756172643a207265656e7472616e742063616c6c004f776e61626c653a206e6577206f776e657220697320746865207a65726f206164647265737373ad2146b3d3a286642c794379d750360a2d53a3459a11b3e5d6cc900f55f44a496e697469616c697a61626c653a20636f6e747261637420697320616c726561647920696e697469616c697a6564536166654d6174683a206d756c7469706c69636174696f6e206f766572666c6f774f776e61626c653a2063616c6c6572206973206e6f7420746865206f776e6572a26469706673582212205d2ec6fa2b08d3c72993c9de956ca9fcde8872c914c2f37503a2b38304d9e2c164736f6c63430007060033",
  "immutableReferences": {},
  "source": "// SPDX-License-Identifier: MIT\n\npragma solidity 0.7.6;\npragma abicoder v2;\n\nimport \"./AuctionHouseBase721.sol\";\nimport \"../wrapper/TokenToAuction.sol\";\n\nimport \"@openzeppelin/contracts-upgradeable/token/ERC721/ERC721HolderUpgradeable.sol\";\n\n/// @dev contract to create and interact with auctions\ncontract AuctionHouse721 is ERC721HolderUpgradeable, TokenToAuction, AuctionHouseBase721 {\n    using SafeMathUpgradeable96 for uint96;\n    using SafeMathUpgradeable for uint;\n\n    function __AuctionHouse721_init(\n        address newDefaultFeeReceiver,\n        IRoyaltiesProvider newRoyaltiesProvider,\n        address _transferProxy,\n        address _erc20TransferProxy,\n        uint64 newProtocolFee,\n        uint96 _minimalStepBasePoint\n    ) external initializer {\n        __Context_init_unchained();\n        __Ownable_init_unchained();\n        __ERC721Holder_init_unchained();\n        __ReentrancyGuard_init_unchained();\n        __AuctionHouseBase_init_unchained(_minimalStepBasePoint);\n        __TransferExecutor_init_unchained(_transferProxy, _erc20TransferProxy);\n        __RaribleTransferManager_init_unchained(newProtocolFee, newDefaultFeeReceiver, newRoyaltiesProvider);          \n        __AuctionHouse721_init_unchained();\n    }\n\n    function __AuctionHouse721_init_unchained() internal initializer {  \n    }\n\n    /// @dev creates an auction and locks sell asset\n    function startAuction(\n        address _sellToken,\n        uint _sellTokenId,\n        address _buyAsset,\n        uint96 minimalPrice,\n        bytes4 dataType,\n        bytes memory data\n    ) external {\n        //todo: check if token contract supports ERC721 interface?\n\n        uint _protocolFee = protocolFee;\n        LibAucDataV1.DataV1 memory aucData = LibAucDataV1.parse(data, dataType);\n        require(aucData.duration >= minimalDuration && aucData.duration <= MAX_DURATION, \"incorrect duration\");\n        require(getValueFromData(aucData.originFee) + _protocolFee <= MAX_FEE_BASE_POINT, \"wrong fees\");\n\n        uint currentAuctionId = getNextAndIncrementAuctionId();\n        address payable sender = _msgSender();\n        Auction memory auc = Auction(\n            _sellToken,\n            _sellTokenId,\n            _buyAsset,\n            0,\n            Bid(0, \"\", \"\"),\n            sender,\n            minimalPrice,\n            payable(address(0)),\n            uint64(_protocolFee),\n            dataType,\n            data\n        );\n        auctions[currentAuctionId] = auc;\n        transferNFT(\n            _sellToken, \n            _sellTokenId, \n            1, \n            LibAsset.ERC721_ASSET_CLASS,\n            sender,\n            address(this)\n        );\n        setAuctionForToken(_sellToken, _sellTokenId, currentAuctionId);\n        \n        emit AuctionCreated(currentAuctionId, sender);\n    }\n\n    /// @dev put a bid and return locked assets for the last bid\n    function putBid(uint _auctionId, Bid memory bid) payable public nonReentrant {\n        address payable newBuyer = _msgSender();\n        uint newAmount = bid.amount;\n        Auction memory currentAuction = auctions[_auctionId];\n        uint96 endTime = currentAuction.endTime;\n        LibAucDataV1.DataV1 memory aucData = LibAucDataV1.parse(currentAuction.data, currentAuction.dataType);\n        uint bidOriginFee = LibBidDataV1.parse(bid.data, bid.dataType).originFee;\n        require(getValueFromData(aucData.originFee) + getValueFromData(bidOriginFee) + currentAuction.protocolFee <= MAX_FEE_BASE_POINT, \"wrong fees\");\n\n        if (currentAuction.buyAsset == address(0)) {\n            checkEthReturnChange(bid.amount, newBuyer);\n        }\n        checkAuctionInProgress(currentAuction.seller, currentAuction.endTime, aucData.startTime);\n        if (buyOutVerify(aucData, newAmount)) {\n            _buyOut(\n                currentAuction,\n                bid,\n                aucData,\n                _auctionId,\n                bidOriginFee,\n                newBuyer\n            );\n            return;\n        }\n        \n        uint96 currentTime = uint96(block.timestamp);\n        //start action if minimal price is met\n        if (currentAuction.buyer == address(0x0)) {//no bid at all\n            // set endTime\n            endTime = currentTime.add(aucData.duration);\n            auctions[_auctionId].endTime = endTime;\n            require(newAmount >= currentAuction.minimalPrice, \"bid too small\");\n        } else {//there is bid in auction\n            require(currentAuction.buyer != newBuyer, \"already winning bid\");\n            uint256 minAmount = _getMinimalNextBid(currentAuction.buyer, currentAuction.minimalPrice, currentAuction.lastBid.amount);\n            require(newAmount >= minAmount, \"bid too low\");\n        }\n\n        address proxy = _getProxy(currentAuction.buyAsset);\n        reserveBid(\n            currentAuction.buyAsset,\n            currentAuction.buyer,\n            newBuyer,\n            currentAuction.lastBid,\n            proxy,\n            bid.amount\n        );\n        auctions[_auctionId].lastBid = bid;\n        auctions[_auctionId].buyer = newBuyer;\n\n        // auction is extended for EXTENSION_DURATION or minimalDuration if (minimalDuration < EXTENSION_DURATION)\n        uint96 minDur = minimalDuration;\n        uint96 extension = (minDur < EXTENSION_DURATION) ? minDur : EXTENSION_DURATION;\n\n        // extends auction time if it's about to end\n        if (endTime.sub(currentTime) < extension) {\n            endTime = currentTime.add(extension);\n            auctions[_auctionId].endTime = endTime;\n        }\n        emit BidPlaced(_auctionId, newBuyer, endTime);\n    }\n\n    /// @dev returns the minimal amount of the next bid (without fees)\n    function getMinimalNextBid(uint _auctionId) external view returns (uint minBid){\n        Auction memory currentAuction = auctions[_auctionId];\n        return _getMinimalNextBid(currentAuction.buyer, currentAuction.minimalPrice, currentAuction.lastBid.amount);\n    }\n\n    /// @dev returns true if auction exists, false otherwise\n    function checkAuctionExistence(uint _auctionId) external view returns (bool){\n        return _checkAuctionExistence(auctions[_auctionId].seller);\n    }\n\n    /// @dev finishes, deletes and transfers all assets for an auction if it's ended (it exists, it has at least one bid, now > endTme)\n    function finishAuction(uint _auctionId) external nonReentrant {\n        Auction memory currentAuction = auctions[_auctionId];\n        require(_checkAuctionExistence(currentAuction.seller), \"there is no auction with this id\");\n        LibAucDataV1.DataV1 memory aucData = LibAucDataV1.parse(currentAuction.data, currentAuction.dataType);\n        require(\n            !_checkAuctionRangeTime(currentAuction.endTime, aucData.startTime) &&\n            currentAuction.buyer != address(0),\n            \"only ended auction with bid can be finished\"\n        );\n        uint bidOriginFee = LibBidDataV1.parse(currentAuction.lastBid.data, currentAuction.lastBid.dataType).originFee;\n\n        doTransfers(\n            LibDeal.DealSide(\n                getSellAsset(\n                    currentAuction.sellToken, \n                    currentAuction.sellTokenId,\n                    1,\n                    LibAsset.ERC721_ASSET_CLASS\n                ),\n                getPayouts(currentAuction.seller),\n                getOriginFee(aucData.originFee),\n                proxies[LibAsset.ERC721_ASSET_CLASS],\n                address(this)\n            ), \n            LibDeal.DealSide(\n                getBuyAsset(\n                    currentAuction.buyAsset,\n                    currentAuction.lastBid.amount\n                ),\n                getPayouts(currentAuction.buyer),\n                getOriginFee(bidOriginFee),\n                _getProxy(currentAuction.buyAsset),\n                address(this)\n            ), \n            LibDeal.DealData(\n                currentAuction.protocolFee,\n                MAX_FEE_BASE_POINT,\n                LibFeeSide.FeeSide.RIGHT\n            )\n        );\n        deactivateAuction(_auctionId, currentAuction.sellToken, currentAuction.sellTokenId);\n    }\n\n    /// @dev returns true if auction started and hasn't finished yet, false otherwise\n    function checkAuctionRangeTime(uint _auctionId) external view returns (bool){\n        return _checkAuctionRangeTime(auctions[_auctionId].endTime, LibAucDataV1.parse(auctions[_auctionId].data, auctions[_auctionId].dataType).startTime);\n    }\n\n    /// @dev deletes auction after finalizing\n    function deactivateAuction(uint _auctionId, address token, uint tokenId) internal {\n        emit AuctionFinished(_auctionId);\n        deleteAuctionForToken(token, tokenId);\n        delete auctions[_auctionId];\n    }\n\n    /// @dev cancels existing auction without bid\n    function cancel(uint _auctionId) external nonReentrant {\n        Auction memory currentAuction = auctions[_auctionId];\n        address seller = currentAuction.seller;\n        require(_checkAuctionExistence(seller), \"there is no auction with this id\");\n        require(seller == _msgSender(), \"auction owner not detected\");\n        require(currentAuction.buyer == address(0), \"can't cancel auction with bid\");\n        transferNFT(\n            currentAuction.sellToken, \n            currentAuction.sellTokenId, \n            1, \n            LibAsset.ERC721_ASSET_CLASS,\n            address(this),\n            seller\n        );\n        deactivateAuction(_auctionId, currentAuction.sellToken, currentAuction.sellTokenId);\n        emit AuctionCancelled(_auctionId);\n    }\n\n    // todo will there be a problem if buyer is last bidder?\n    /// @dev buyout auction if bid satisfies buyout condition\n    function buyOut(uint _auctionId, Bid memory bid) external payable nonReentrant {\n        Auction memory currentAuction = auctions[_auctionId];\n        LibAucDataV1.DataV1 memory aucData = LibAucDataV1.parse(currentAuction.data, currentAuction.dataType);\n        checkAuctionInProgress(currentAuction.seller, currentAuction.endTime, aucData.startTime);\n        uint bidOriginFee = LibBidDataV1.parse(bid.data, bid.dataType).originFee;\n\n        require(buyOutVerify(aucData, bid.amount), \"not enough for buyout\");\n        require(getValueFromData(aucData.originFee) + getValueFromData(bidOriginFee) + currentAuction.protocolFee <= MAX_FEE_BASE_POINT, \"wrong fees\");\n        \n        address sender = _msgSender();\n        if (currentAuction.buyAsset == address(0)) {\n            checkEthReturnChange(bid.amount, sender);\n        }\n        _buyOut(\n            currentAuction,\n            bid,\n            aucData,\n            _auctionId,\n            bidOriginFee,\n            sender\n        );\n    }\n\n    function _buyOut(\n        Auction memory currentAuction,\n        Bid memory bid,\n        LibAucDataV1.DataV1 memory aucData,\n        uint _auctionId,\n        uint newBidOriginFee,\n        address sender\n    ) internal {\n        address proxy = _getProxy(currentAuction.buyAsset);\n\n        _returnBid(\n            currentAuction.lastBid,\n            currentAuction.buyAsset,\n            currentAuction.buyer,\n            proxy\n        );\n\n        address from;\n        if (currentAuction.buyAsset == address(0)) {\n            // if buyAsset = ETH\n            from = address(this);\n        } else {\n            // if buyAsset = ERC20\n            from = sender;\n        }\n\n        doTransfers(\n            LibDeal.DealSide(\n                getSellAsset(\n                    currentAuction.sellToken, \n                    currentAuction.sellTokenId,\n                    1,\n                    LibAsset.ERC721_ASSET_CLASS\n                ),\n                getPayouts(currentAuction.seller),\n                getOriginFee(aucData.originFee),\n                proxies[LibAsset.ERC721_ASSET_CLASS],\n                address(this)\n            ), \n            LibDeal.DealSide(\n                getBuyAsset(\n                    currentAuction.buyAsset,\n                    bid.amount\n                ),\n                getPayouts(sender),\n                getOriginFee(newBidOriginFee),\n                proxy,\n                from\n            ), \n            LibDeal.DealData(\n                currentAuction.protocolFee,\n                MAX_FEE_BASE_POINT,\n                LibFeeSide.FeeSide.RIGHT\n            )\n        );\n\n        deactivateAuction(_auctionId, currentAuction.sellToken, currentAuction.sellTokenId);\n        emit AuctionBuyOut(auctionId, sender);\n    }\n\n    /// @dev returns current highest bidder for an auction\n    function getCurrentBuyer(uint _auctionId) external view returns(address) {\n        return auctions[_auctionId].buyer;\n    }\n\n    /// @dev function to call from wrapper to put bid\n    function putBidWrapper(uint256 _auctionId) external payable {\n        require(auctions[_auctionId].buyAsset == address(0), \"only ETH bids allowed\");\n        putBid(_auctionId, Bid(msg.value, LibBidDataV1.V1, \"\"));\n    }\n\n}",
  "sourcePath": "/Users/quintin/Desktop/protocol-contracts/auction/contracts/721/AuctionHouse721.sol",
  "compiler": {
    "name": "solc",
    "version": "0.7.6+commit.7338295f.Emscripten.clang"
  },
  "schemaVersion": "3.4.1",
  "updatedAt": "2022-08-04T07:15:50.558Z",
  "devdoc": {
    "details": "contract to create and interact with auctions",
    "kind": "dev",
    "methods": {
      "buyOut(uint256,(uint256,bytes4,bytes))": {
        "details": "buyout auction if bid satisfies buyout condition"
      },
      "cancel(uint256)": {
        "details": "cancels existing auction without bid"
      },
      "checkAuctionExistence(uint256)": {
        "details": "returns true if auction exists, false otherwise"
      },
      "checkAuctionRangeTime(uint256)": {
        "details": "returns true if auction started and hasn't finished yet, false otherwise"
      },
      "finishAuction(uint256)": {
        "details": "finishes, deletes and transfers all assets for an auction if it's ended (it exists, it has at least one bid, now > endTme)"
      },
      "getAuctionByToken(address,uint256)": {
        "details": "returns auction id by token address and token id"
      },
      "getCurrentBuyer(uint256)": {
        "details": "returns current highest bidder for an auction"
      },
      "getMinimalNextBid(uint256)": {
        "details": "returns the minimal amount of the next bid (without fees)"
      },
      "onERC721Received(address,address,uint256,bytes)": {
        "details": "See {IERC721Receiver-onERC721Received}. Always returns `IERC721Receiver.onERC721Received.selector`."
      },
      "owner()": {
        "details": "Returns the address of the current owner."
      },
      "putBid(uint256,(uint256,bytes4,bytes))": {
        "details": "put a bid and return locked assets for the last bid"
      },
      "putBidWrapper(uint256)": {
        "details": "function to call from wrapper to put bid"
      },
      "renounceOwnership()": {
        "details": "Leaves the contract without owner. It will not be possible to call `onlyOwner` functions anymore. Can only be called by the current owner. NOTE: Renouncing ownership will leave the contract without an owner, thereby removing any functionality that is only available to the owner."
      },
      "startAuction(address,uint256,address,uint96,bytes4,bytes)": {
        "details": "creates an auction and locks sell asset"
      },
      "transferOwnership(address)": {
        "details": "Transfers ownership of the contract to a new account (`newOwner`). Can only be called by the current owner."
      },
      "withdrawFaultyBid(address)": {
        "details": "Used to withdraw faulty bids (bids that failed to return after out-bidding)"
      }
    },
    "version": 1
  },
  "userdoc": {
    "kind": "user",
    "methods": {},
    "version": 1
  }
}